{
  "contractName": "ZombieAttack",
  "abi": [
    {
      "anonymous": false,
      "inputs": [
        {
          "indexed": false,
          "internalType": "uint256",
          "name": "zombieId",
          "type": "uint256"
        },
        {
          "indexed": false,
          "internalType": "string",
          "name": "name",
          "type": "string"
        },
        {
          "indexed": false,
          "internalType": "uint256",
          "name": "dna",
          "type": "uint256"
        }
      ],
      "name": "NewZombie",
      "type": "event"
    },
    {
      "anonymous": false,
      "inputs": [
        {
          "indexed": true,
          "internalType": "address",
          "name": "previousOwner",
          "type": "address"
        },
        {
          "indexed": true,
          "internalType": "address",
          "name": "newOwner",
          "type": "address"
        }
      ],
      "name": "OwnershipTransferred",
      "type": "event"
    },
    {
      "inputs": [],
      "name": "attackVictoryProbability",
      "outputs": [
        {
          "internalType": "uint256",
          "name": "",
          "type": "uint256"
        }
      ],
      "stateMutability": "view",
      "type": "function"
    },
    {
      "inputs": [
        {
          "internalType": "uint256",
          "name": "_zombieId",
          "type": "uint256"
        },
        {
          "internalType": "uint256",
          "name": "_newDna",
          "type": "uint256"
        }
      ],
      "name": "changeDna",
      "outputs": [],
      "stateMutability": "nonpayable",
      "type": "function"
    },
    {
      "inputs": [
        {
          "internalType": "uint256",
          "name": "_zombieId",
          "type": "uint256"
        },
        {
          "internalType": "string",
          "name": "_newName",
          "type": "string"
        }
      ],
      "name": "changeName",
      "outputs": [],
      "stateMutability": "nonpayable",
      "type": "function"
    },
    {
      "inputs": [
        {
          "internalType": "string",
          "name": "_name",
          "type": "string"
        }
      ],
      "name": "createRandomZombie",
      "outputs": [],
      "stateMutability": "nonpayable",
      "type": "function"
    },
    {
      "inputs": [
        {
          "internalType": "uint256",
          "name": "_zombieId",
          "type": "uint256"
        },
        {
          "internalType": "uint256",
          "name": "_kittyId",
          "type": "uint256"
        }
      ],
      "name": "feedOnKitty",
      "outputs": [],
      "stateMutability": "nonpayable",
      "type": "function"
    },
    {
      "inputs": [
        {
          "internalType": "address",
          "name": "_owner",
          "type": "address"
        }
      ],
      "name": "getZombiesByOwner",
      "outputs": [
        {
          "internalType": "uint256[]",
          "name": "",
          "type": "uint256[]"
        }
      ],
      "stateMutability": "view",
      "type": "function"
    },
    {
      "inputs": [
        {
          "internalType": "uint256",
          "name": "_zombieId",
          "type": "uint256"
        }
      ],
      "name": "levelUp",
      "outputs": [],
      "stateMutability": "payable",
      "type": "function"
    },
    {
      "inputs": [],
      "name": "levelUpFee",
      "outputs": [
        {
          "internalType": "uint256",
          "name": "",
          "type": "uint256"
        }
      ],
      "stateMutability": "view",
      "type": "function"
    },
    {
      "inputs": [],
      "name": "owner",
      "outputs": [
        {
          "internalType": "address",
          "name": "",
          "type": "address"
        }
      ],
      "stateMutability": "view",
      "type": "function"
    },
    {
      "inputs": [],
      "name": "randNonce",
      "outputs": [
        {
          "internalType": "uint256",
          "name": "",
          "type": "uint256"
        }
      ],
      "stateMutability": "view",
      "type": "function"
    },
    {
      "inputs": [
        {
          "internalType": "address",
          "name": "_address",
          "type": "address"
        }
      ],
      "name": "setKittyContractAddress",
      "outputs": [],
      "stateMutability": "nonpayable",
      "type": "function"
    },
    {
      "inputs": [
        {
          "internalType": "uint256",
          "name": "_fee",
          "type": "uint256"
        }
      ],
      "name": "setLevelUpFee",
      "outputs": [],
      "stateMutability": "nonpayable",
      "type": "function"
    },
    {
      "inputs": [
        {
          "internalType": "address",
          "name": "newOwner",
          "type": "address"
        }
      ],
      "name": "transferOwnership",
      "outputs": [],
      "stateMutability": "nonpayable",
      "type": "function"
    },
    {
      "inputs": [],
      "name": "withdraw",
      "outputs": [],
      "stateMutability": "nonpayable",
      "type": "function"
    },
    {
      "inputs": [
        {
          "internalType": "uint256",
          "name": "",
          "type": "uint256"
        }
      ],
      "name": "zombieToOwner",
      "outputs": [
        {
          "internalType": "address",
          "name": "",
          "type": "address"
        }
      ],
      "stateMutability": "view",
      "type": "function"
    },
    {
      "inputs": [
        {
          "internalType": "uint256",
          "name": "",
          "type": "uint256"
        }
      ],
      "name": "zombies",
      "outputs": [
        {
          "internalType": "string",
          "name": "name",
          "type": "string"
        },
        {
          "internalType": "uint256",
          "name": "dna",
          "type": "uint256"
        },
        {
          "internalType": "uint32",
          "name": "level",
          "type": "uint32"
        },
        {
          "internalType": "uint32",
          "name": "readyTime",
          "type": "uint32"
        },
        {
          "internalType": "uint16",
          "name": "winCount",
          "type": "uint16"
        },
        {
          "internalType": "uint16",
          "name": "lossCount",
          "type": "uint16"
        }
      ],
      "stateMutability": "view",
      "type": "function"
    },
    {
      "inputs": [
        {
          "internalType": "uint256",
          "name": "_zombieId",
          "type": "uint256"
        },
        {
          "internalType": "uint256",
          "name": "_targetId",
          "type": "uint256"
        }
      ],
      "name": "attack",
      "outputs": [],
      "stateMutability": "nonpayable",
      "type": "function"
    }
  ],
  "bytecode": "0x60806040526010600155600154600a6200001a919062000210565b6002556201518060035566038d7ea4c680006008555f6009556046600a5534801562000044575f80fd5b50335f806101000a81548173ffffffffffffffffffffffffffffffffffffffff021916908373ffffffffffffffffffffffffffffffffffffffff16021790555062000260565b7f4e487b71000000000000000000000000000000000000000000000000000000005f52601160045260245ffd5b5f8160011c9050919050565b5f808291508390505b60018511156200011457808604811115620000ec57620000eb6200008a565b5b6001851615620000fc5780820291505b80810290506200010c85620000b7565b9450620000cc565b94509492505050565b5f826200012e576001905062000200565b816200013d575f905062000200565b8160018114620001565760028114620001615762000197565b600191505062000200565b60ff8411156200017657620001756200008a565b5b8360020a91508482111562000190576200018f6200008a565b5b5062000200565b5060208310610133831016604e8410600b8410161715620001d15782820a905083811115620001cb57620001ca6200008a565b5b62000200565b620001e08484846001620000c3565b92509050818404811115620001fa57620001f96200008a565b5b81810290505b9392505050565b5f819050919050565b5f6200021c8262000207565b9150620002298362000207565b9250620002587fffffffffffffffffffffffffffffffffffffffffffffffffffffffffffffffff84846200011d565b905092915050565b6126cd806200026e5f395ff3fe6080604052600436106100fd575f3560e01c806361e0135611610094578063c39cbef111610063578063c39cbef11461030a578063c4114b1214610332578063ccf670f81461035c578063e1fa763814610384578063f2fde38b146103ac576100fd565b806361e01356146102645780637bff0a011461028e5780638da5cb5b146102b6578063a94d153b146102e0576100fd565b80634412e104116100d05780634412e1041461019c578063528b7b8f146101d85780635f4623f1146102145780635faf28801461023c576100fd565b80630ce90ec21461010157806317a7f4cc1461011d5780632052465e146101455780633ccfd60b14610186575b5f80fd5b61011b60048036038101906101169190611767565b6103d4565b005b348015610128575f80fd5b50610143600480360381019061013e9190611792565b61047c565b005b348015610150575f80fd5b5061016b60048036038101906101669190611767565b610596565b60405161017d969594939291906118a3565b60405180910390f35b348015610191575f80fd5b5061019a61069e565b005b3480156101a7575f80fd5b506101c260048036038101906101bd9190611963565b610790565b6040516101cf9190611a45565b60405180910390f35b3480156101e3575f80fd5b506101fe60048036038101906101f99190611767565b6108db565b60405161020b9190611a74565b60405180910390f35b34801561021f575f80fd5b5061023a60048036038101906102359190611963565b61090b565b005b348015610247575f80fd5b50610262600480360381019061025d9190611792565b6109db565b005b34801561026f575f80fd5b50610278610b27565b6040516102859190611a8d565b60405180910390f35b348015610299575f80fd5b506102b460048036038101906102af9190611bd2565b610b2d565b005b3480156102c1575f80fd5b506102ca610be0565b6040516102d79190611a74565b60405180910390f35b3480156102eb575f80fd5b506102f4610c03565b6040516103019190611a8d565b60405180910390f35b348015610315575f80fd5b50610330600480360381019061032b9190611c19565b610c09565b005b34801561033d575f80fd5b50610346610d5d565b6040516103539190611a8d565b60405180910390f35b348015610367575f80fd5b50610382600480360381019061037d9190611767565b610d63565b005b34801561038f575f80fd5b506103aa60048036038101906103a59190611792565b610dfa565b005b3480156103b7575f80fd5b506103d260048036038101906103cd9190611963565b611086565b005b6008543414610418576040517f08c379a000000000000000000000000000000000000000000000000000000000815260040161040f90611cbd565b60405180910390fd5b6004818154811061042c5761042b611cdb565b5b905f5260205f2090600302016002015f81819054906101000a900463ffffffff168092919061045a90611d35565b91906101000a81548163ffffffff021916908363ffffffff1602179055505050565b5f60075f9054906101000a900473ffffffffffffffffffffffffffffffffffffffff1673ffffffffffffffffffffffffffffffffffffffff1663e98b7f4d836040518263ffffffff1660e01b81526004016104d79190611a8d565b61014060405180830381865afa1580156104f3573d5f803e3d5ffd5b505050506040513d601f19601f820116820180604052508101906105179190611da9565b9091929394959697985090919293949596975090919293949596509091929394955090919293945090919293509091925090915090508091505061059183826040518060400160405280600581526020017f6b6974747900000000000000000000000000000000000000000000000000000081525061123c565b505050565b600481815481106105a5575f80fd5b905f5260205f2090600302015f91509050805f0180546105c490611eaf565b80601f01602080910402602001604051908101604052809291908181526020018280546105f090611eaf565b801561063b5780601f106106125761010080835404028352916020019161063b565b820191905f5260205f20905b81548152906001019060200180831161061e57829003601f168201915b505050505090806001015490806002015f9054906101000a900463ffffffff16908060020160049054906101000a900463ffffffff16908060020160089054906101000a900461ffff169080600201600a9054906101000a900461ffff16905086565b5f8054906101000a900473ffffffffffffffffffffffffffffffffffffffff1673ffffffffffffffffffffffffffffffffffffffff163373ffffffffffffffffffffffffffffffffffffffff161461072b576040517f08c379a000000000000000000000000000000000000000000000000000000000815260040161072290611f4f565b60405180910390fd5b5f8054906101000a900473ffffffffffffffffffffffffffffffffffffffff1673ffffffffffffffffffffffffffffffffffffffff166108fc4790811502906040515f60405180830381858888f1935050505015801561078d573d5f803e3d5ffd5b50565b60605f60065f8473ffffffffffffffffffffffffffffffffffffffff1673ffffffffffffffffffffffffffffffffffffffff1681526020019081526020015f205467ffffffffffffffff8111156107ea576107e9611aae565b5b6040519080825280602002602001820160405280156108185781602001602082028036833780820191505090505b5090505f805b6004805490508110156108d0578473ffffffffffffffffffffffffffffffffffffffff1660055f8381526020019081526020015f205f9054906101000a900473ffffffffffffffffffffffffffffffffffffffff1673ffffffffffffffffffffffffffffffffffffffff16036108bd57808383815181106108a2576108a1611cdb565b5b60200260200101818152505081806108b990611f6d565b9250505b80806108c890611f6d565b91505061081e565b508192505050919050565b6005602052805f5260405f205f915054906101000a900473ffffffffffffffffffffffffffffffffffffffff1681565b5f8054906101000a900473ffffffffffffffffffffffffffffffffffffffff1673ffffffffffffffffffffffffffffffffffffffff163373ffffffffffffffffffffffffffffffffffffffff1614610998576040517f08c379a000000000000000000000000000000000000000000000000000000000815260040161098f90611f4f565b60405180910390fd5b8060075f6101000a81548173ffffffffffffffffffffffffffffffffffffffff021916908373ffffffffffffffffffffffffffffffffffffffff16021790555050565b60148281600482815481106109f3576109f2611cdb565b5b905f5260205f2090600302016002015f9054906101000a900463ffffffff1663ffffffff161015610a59576040517f08c379a0000000000000000000000000000000000000000000000000000000008152600401610a5090611ffe565b60405180910390fd5b8360055f8281526020019081526020015f205f9054906101000a900473ffffffffffffffffffffffffffffffffffffffff1673ffffffffffffffffffffffffffffffffffffffff163373ffffffffffffffffffffffffffffffffffffffff1614610af8576040517f08c379a0000000000000000000000000000000000000000000000000000000008152600401610aef90612066565b60405180910390fd5b8360048681548110610b0d57610b0c611cdb565b5b905f5260205f209060030201600101819055505050505050565b60095481565b5f60065f3373ffffffffffffffffffffffffffffffffffffffff1673ffffffffffffffffffffffffffffffffffffffff1681526020019081526020015f205414610bac576040517f08c379a0000000000000000000000000000000000000000000000000000000008152600401610ba3906120ce565b60405180910390fd5b5f610bb68261141a565b9050606481610bc59190612119565b81610bd09190612149565b9050610bdc828261145d565b5050565b5f8054906101000a900473ffffffffffffffffffffffffffffffffffffffff1681565b600a5481565b6002828160048281548110610c2157610c20611cdb565b5b905f5260205f2090600302016002015f9054906101000a900463ffffffff1663ffffffff161015610c87576040517f08c379a0000000000000000000000000000000000000000000000000000000008152600401610c7e90611ffe565b60405180910390fd5b8360055f8281526020019081526020015f205f9054906101000a900473ffffffffffffffffffffffffffffffffffffffff1673ffffffffffffffffffffffffffffffffffffffff163373ffffffffffffffffffffffffffffffffffffffff1614610d26576040517f08c379a0000000000000000000000000000000000000000000000000000000008152600401610d1d90612066565b60405180910390fd5b8360048681548110610d3b57610d3a611cdb565b5b905f5260205f2090600302015f019081610d559190612319565b505050505050565b60085481565b5f8054906101000a900473ffffffffffffffffffffffffffffffffffffffff1673ffffffffffffffffffffffffffffffffffffffff163373ffffffffffffffffffffffffffffffffffffffff1614610df0576040517f08c379a0000000000000000000000000000000000000000000000000000000008152600401610de790611f4f565b60405180910390fd5b8060088190555050565b8160055f8281526020019081526020015f205f9054906101000a900473ffffffffffffffffffffffffffffffffffffffff1673ffffffffffffffffffffffffffffffffffffffff163373ffffffffffffffffffffffffffffffffffffffff1614610e99576040517f08c379a0000000000000000000000000000000000000000000000000000000008152600401610e9090612066565b60405180910390fd5b5f60048481548110610eae57610ead611cdb565b5b905f5260205f20906003020190505f60048481548110610ed157610ed0611cdb565b5b905f5260205f20906003020190505f610eea6064611671565b9050600a548111610ffa5782600201600881819054906101000a900461ffff1680929190610f17906123e8565b91906101000a81548161ffff021916908361ffff16021790555050826002015f81819054906101000a900463ffffffff1680929190610f5590611d35565b91906101000a81548163ffffffff021916908363ffffffff1602179055505081600201600a81819054906101000a900461ffff1680929190610f96906123e8565b91906101000a81548161ffff021916908361ffff16021790555050610ff58683600101546040518060400160405280600681526020017f7a6f6d626965000000000000000000000000000000000000000000000000000081525061123c565b61107e565b82600201600a81819054906101000a900461ffff168092919061101c906123e8565b91906101000a81548161ffff021916908361ffff1602179055505081600201600881819054906101000a900461ffff1680929190611059906123e8565b91906101000a81548161ffff021916908361ffff1602179055505061107d836116ca565b5b505050505050565b5f8054906101000a900473ffffffffffffffffffffffffffffffffffffffff1673ffffffffffffffffffffffffffffffffffffffff163373ffffffffffffffffffffffffffffffffffffffff1614611113576040517f08c379a000000000000000000000000000000000000000000000000000000000815260040161110a90611f4f565b60405180910390fd5b5f73ffffffffffffffffffffffffffffffffffffffff168173ffffffffffffffffffffffffffffffffffffffff1603611181576040517f08c379a000000000000000000000000000000000000000000000000000000000815260040161117890612481565b60405180910390fd5b8073ffffffffffffffffffffffffffffffffffffffff165f8054906101000a900473ffffffffffffffffffffffffffffffffffffffff1673ffffffffffffffffffffffffffffffffffffffff167f8be0079c531659141344cd1fd0a4f28419497f9722a3daafe3b4186f6b6457e060405160405180910390a3805f806101000a81548173ffffffffffffffffffffffffffffffffffffffff021916908373ffffffffffffffffffffffffffffffffffffffff16021790555050565b8260055f8281526020019081526020015f205f9054906101000a900473ffffffffffffffffffffffffffffffffffffffff1673ffffffffffffffffffffffffffffffffffffffff163373ffffffffffffffffffffffffffffffffffffffff16146112db576040517f08c379a00000000000000000000000000000000000000000000000000000000081526004016112d290612066565b60405180910390fd5b5f600485815481106112f0576112ef611cdb565b5b905f5260205f2090600302019050611307816116fd565b611346576040517f08c379a000000000000000000000000000000000000000000000000000000000815260040161133d906124e9565b60405180910390fd5b600254846113549190612119565b93505f60028583600101546113699190612507565b611373919061253a565b90507f8d53323b21b9f304546f6d3e61cde865451064d614aa4912f395b755a9d8cad98480519060200120036113ca5760636064826113b29190612119565b826113bd9190612149565b6113c79190612507565b90505b6114096040518060400160405280600681526020017f4e6f4e616d6500000000000000000000000000000000000000000000000000008152508261145d565b611412826116ca565b505050505050565b5f808260405160200161142d91906125a4565b604051602081830303815290604052805190602001205f1c9050600254816114559190612119565b915050919050565b5f600480549050905060046040518060c00160405280858152602001848152602001600163ffffffff1681526020016003544261149a9190612507565b63ffffffff1681526020015f61ffff1681526020015f61ffff16815250908060018154018082558091505060019003905f5260205f2090600302015f909190919091505f820151815f0190816114f09190612319565b50602082015181600101556040820151816002015f6101000a81548163ffffffff021916908363ffffffff16021790555060608201518160020160046101000a81548163ffffffff021916908363ffffffff16021790555060808201518160020160086101000a81548161ffff021916908361ffff16021790555060a082015181600201600a6101000a81548161ffff021916908361ffff16021790555050503360055f8381526020019081526020015f205f6101000a81548173ffffffffffffffffffffffffffffffffffffffff021916908373ffffffffffffffffffffffffffffffffffffffff16021790555060065f3373ffffffffffffffffffffffffffffffffffffffff1673ffffffffffffffffffffffffffffffffffffffff1681526020019081526020015f205f81548092919061162c90611f6d565b91905055507f88f026aacbbecc90c18411df4b1185fd8d9be2470f1962f192bf84a27d0704b7818484604051611664939291906125ba565b60405180910390a1505050565b5f60095f81548092919061168490611f6d565b91905055508142336009546040516020016116a19392919061265b565b604051602081830303815290604052805190602001205f1c6116c39190612119565b9050919050565b600354426116d89190612507565b8160020160046101000a81548163ffffffff021916908363ffffffff16021790555050565b5f428260020160049054906101000a900463ffffffff1663ffffffff1611159050919050565b5f604051905090565b5f80fd5b5f80fd5b5f819050919050565b61174681611734565b8114611750575f80fd5b50565b5f813590506117618161173d565b92915050565b5f6020828403121561177c5761177b61172c565b5b5f61178984828501611753565b91505092915050565b5f80604083850312156117a8576117a761172c565b5b5f6117b585828601611753565b92505060206117c685828601611753565b9150509250929050565b5f81519050919050565b5f82825260208201905092915050565b5f5b838110156118075780820151818401526020810190506117ec565b5f8484015250505050565b5f601f19601f8301169050919050565b5f61182c826117d0565b61183681856117da565b93506118468185602086016117ea565b61184f81611812565b840191505092915050565b61186381611734565b82525050565b5f63ffffffff82169050919050565b61188181611869565b82525050565b5f61ffff82169050919050565b61189d81611887565b82525050565b5f60c0820190508181035f8301526118bb8189611822565b90506118ca602083018861185a565b6118d76040830187611878565b6118e46060830186611878565b6118f16080830185611894565b6118fe60a0830184611894565b979650505050505050565b5f73ffffffffffffffffffffffffffffffffffffffff82169050919050565b5f61193282611909565b9050919050565b61194281611928565b811461194c575f80fd5b50565b5f8135905061195d81611939565b92915050565b5f602082840312156119785761197761172c565b5b5f6119858482850161194f565b91505092915050565b5f81519050919050565b5f82825260208201905092915050565b5f819050602082019050919050565b6119c081611734565b82525050565b5f6119d183836119b7565b60208301905092915050565b5f602082019050919050565b5f6119f38261198e565b6119fd8185611998565b9350611a08836119a8565b805f5b83811015611a38578151611a1f88826119c6565b9750611a2a836119dd565b925050600181019050611a0b565b5085935050505092915050565b5f6020820190508181035f830152611a5d81846119e9565b905092915050565b611a6e81611928565b82525050565b5f602082019050611a875f830184611a65565b92915050565b5f602082019050611aa05f83018461185a565b92915050565b5f80fd5b5f80fd5b7f4e487b71000000000000000000000000000000000000000000000000000000005f52604160045260245ffd5b611ae482611812565b810181811067ffffffffffffffff82111715611b0357611b02611aae565b5b80604052505050565b5f611b15611723565b9050611b218282611adb565b919050565b5f67ffffffffffffffff821115611b4057611b3f611aae565b5b611b4982611812565b9050602081019050919050565b828183375f83830152505050565b5f611b76611b7184611b26565b611b0c565b905082815260208101848484011115611b9257611b91611aaa565b5b611b9d848285611b56565b509392505050565b5f82601f830112611bb957611bb8611aa6565b5b8135611bc9848260208601611b64565b91505092915050565b5f60208284031215611be757611be661172c565b5b5f82013567ffffffffffffffff811115611c0457611c03611730565b5b611c1084828501611ba5565b91505092915050565b5f8060408385031215611c2f57611c2e61172c565b5b5f611c3c85828601611753565b925050602083013567ffffffffffffffff811115611c5d57611c5c611730565b5b611c6985828601611ba5565b9150509250929050565b7f496e636f7272656374206c6576656c20757020666565000000000000000000005f82015250565b5f611ca76016836117da565b9150611cb282611c73565b602082019050919050565b5f6020820190508181035f830152611cd481611c9b565b9050919050565b7f4e487b71000000000000000000000000000000000000000000000000000000005f52603260045260245ffd5b7f4e487b71000000000000000000000000000000000000000000000000000000005f52601160045260245ffd5b5f611d3f82611869565b915063ffffffff8203611d5557611d54611d08565b5b600182019050919050565b5f8115159050919050565b611d7481611d60565b8114611d7e575f80fd5b50565b5f81519050611d8f81611d6b565b92915050565b5f81519050611da38161173d565b92915050565b5f805f805f805f805f806101408b8d031215611dc857611dc761172c565b5b5f611dd58d828e01611d81565b9a50506020611de68d828e01611d81565b9950506040611df78d828e01611d95565b9850506060611e088d828e01611d95565b9750506080611e198d828e01611d95565b96505060a0611e2a8d828e01611d95565b95505060c0611e3b8d828e01611d95565b94505060e0611e4c8d828e01611d95565b935050610100611e5e8d828e01611d95565b925050610120611e708d828e01611d95565b9150509295989b9194979a5092959850565b7f4e487b71000000000000000000000000000000000000000000000000000000005f52602260045260245ffd5b5f6002820490506001821680611ec657607f821691505b602082108103611ed957611ed8611e82565b5b50919050565b7f4f6e6c7920746865206f776e65722063616e2063616c6c20746869732066756e5f8201527f6374696f6e000000000000000000000000000000000000000000000000000000602082015250565b5f611f396025836117da565b9150611f4482611edf565b604082019050919050565b5f6020820190508181035f830152611f6681611f2d565b9050919050565b5f611f7782611734565b91507fffffffffffffffffffffffffffffffffffffffffffffffffffffffffffffffff8203611fa957611fa8611d08565b5b600182019050919050565b7f5a6f6d626965206c6576656c206973206e6f74206869676820656e6f756768005f82015250565b5f611fe8601f836117da565b9150611ff382611fb4565b602082019050919050565b5f6020820190508181035f83015261201581611fdc565b9050919050565b7f4e6f7420746865206f776e6572206f662074686973207a6f6d626965000000005f82015250565b5f612050601c836117da565b915061205b8261201c565b602082019050919050565b5f6020820190508181035f83015261207d81612044565b9050919050565b7f596f7520616c7265616479206f776e2061207a6f6d6269652e000000000000005f82015250565b5f6120b86019836117da565b91506120c382612084565b602082019050919050565b5f6020820190508181035f8301526120e5816120ac565b9050919050565b7f4e487b71000000000000000000000000000000000000000000000000000000005f52601260045260245ffd5b5f61212382611734565b915061212e83611734565b92508261213e5761213d6120ec565b5b828206905092915050565b5f61215382611734565b915061215e83611734565b925082820390508181111561217657612175611d08565b5b92915050565b5f819050815f5260205f209050919050565b5f6020601f8301049050919050565b5f82821b905092915050565b5f600883026121d87fffffffffffffffffffffffffffffffffffffffffffffffffffffffffffffffff8261219d565b6121e2868361219d565b95508019841693508086168417925050509392505050565b5f819050919050565b5f61221d61221861221384611734565b6121fa565b611734565b9050919050565b5f819050919050565b61223683612203565b61224a61224282612224565b8484546121a9565b825550505050565b5f90565b61225e612252565b61226981848461222d565b505050565b5b8181101561228c576122815f82612256565b60018101905061226f565b5050565b601f8211156122d1576122a28161217c565b6122ab8461218e565b810160208510156122ba578190505b6122ce6122c68561218e565b83018261226e565b50505b505050565b5f82821c905092915050565b5f6122f15f19846008026122d6565b1980831691505092915050565b5f61230983836122e2565b9150826002028217905092915050565b612322826117d0565b67ffffffffffffffff81111561233b5761233a611aae565b5b6123458254611eaf565b612350828285612290565b5f60209050601f831160018114612381575f841561236f578287015190505b61237985826122fe565b8655506123e0565b601f19841661238f8661217c565b5f5b828110156123b657848901518255600182019150602085019450602081019050612391565b868310156123d357848901516123cf601f8916826122e2565b8355505b6001600288020188555050505b505050505050565b5f6123f282611887565b915061ffff820361240657612405611d08565b5b600182019050919050565b7f4e6577206f776e657220616464726573732063616e6e6f74206265207a65726f5f8201527f2061646472657373000000000000000000000000000000000000000000000000602082015250565b5f61246b6028836117da565b915061247682612411565b604082019050919050565b5f6020820190508181035f8301526124988161245f565b9050919050565b7f5a6f6d626965206973206e6f74207265616479207965740000000000000000005f82015250565b5f6124d36017836117da565b91506124de8261249f565b602082019050919050565b5f6020820190508181035f830152612500816124c7565b9050919050565b5f61251182611734565b915061251c83611734565b925082820190508082111561253457612533611d08565b5b92915050565b5f61254482611734565b915061254f83611734565b92508261255f5761255e6120ec565b5b828204905092915050565b5f81905092915050565b5f61257e826117d0565b612588818561256a565b93506125988185602086016117ea565b80840191505092915050565b5f6125af8284612574565b915081905092915050565b5f6060820190506125cd5f83018661185a565b81810360208301526125df8185611822565b90506125ee604083018461185a565b949350505050565b5f819050919050565b61261061260b82611734565b6125f6565b82525050565b5f8160601b9050919050565b5f61262c82612616565b9050919050565b5f61263d82612622565b9050919050565b61265561265082611928565b612633565b82525050565b5f61266682866125ff565b6020820191506126768285612644565b60148201915061268682846125ff565b60208201915081905094935050505056fea26469706673582212209c3e4606354b187da0427418fdb29cdcef2c48542f6865aca021f3537130f97664736f6c63430008150033",
  "immutableReferences": {},
  "source": "// SPDX-License-Identifier: MIT\npragma solidity ^0.8.0;\n\nimport \"./zombiehelper.sol\";\n\ncontract ZombieAttack is ZombieHelper {\n    uint256 public randNonce = 0;\n    uint256 public attackVictoryProbability = 70;\n\n    function randMod(uint256 _modulus) internal returns (uint256) {\n        randNonce++;\n        return uint256(keccak256(abi.encodePacked(block.timestamp, msg.sender, randNonce))) % _modulus;\n    }\n\n    function attack(uint256 _zombieId, uint256 _targetId) external onlyOwnerOf(_zombieId) {\n        Zombie storage myZombie = zombies[_zombieId];\n        Zombie storage enemyZombie = zombies[_targetId];\n        uint256 rand = randMod(100);\n        if (rand <= attackVictoryProbability) {\n            myZombie.winCount++;\n            myZombie.level++;\n            enemyZombie.lossCount++;\n            feedAndMultiply(_zombieId, enemyZombie.dna, \"zombie\");\n        } else {\n            myZombie.lossCount++;\n            enemyZombie.winCount++;\n            _triggerCooldown(myZombie);\n        }\n    }\n}\n",
  "sourcePath": "/home/inkz/practice/solidity/cryptoZombies/advance/contracts/zombieattack.sol",
  "compiler": {
    "name": "solc",
    "version": "0.8.21+commit.d9974bed.Emscripten.clang"
  },
  "schemaVersion": "3.4.16",
  "updatedAt": "2024-03-21T08:21:06.450Z",
  "devdoc": {
    "kind": "dev",
    "methods": {},
    "version": 1
  },
  "userdoc": {
    "kind": "user",
    "methods": {},
    "version": 1
  }
}