{
  "contractName": "ZombieFeeding",
  "abi": [
    {
      "anonymous": false,
      "inputs": [
        {
          "indexed": false,
          "internalType": "uint256",
          "name": "zombieId",
          "type": "uint256"
        },
        {
          "indexed": false,
          "internalType": "string",
          "name": "name",
          "type": "string"
        },
        {
          "indexed": false,
          "internalType": "uint256",
          "name": "dna",
          "type": "uint256"
        }
      ],
      "name": "NewZombie",
      "type": "event"
    },
    {
      "anonymous": false,
      "inputs": [
        {
          "indexed": true,
          "internalType": "address",
          "name": "previousOwner",
          "type": "address"
        },
        {
          "indexed": true,
          "internalType": "address",
          "name": "newOwner",
          "type": "address"
        }
      ],
      "name": "OwnershipTransferred",
      "type": "event"
    },
    {
      "inputs": [
        {
          "internalType": "string",
          "name": "_name",
          "type": "string"
        }
      ],
      "name": "createRandomZombie",
      "outputs": [],
      "stateMutability": "nonpayable",
      "type": "function"
    },
    {
      "inputs": [],
      "name": "owner",
      "outputs": [
        {
          "internalType": "address",
          "name": "",
          "type": "address"
        }
      ],
      "stateMutability": "view",
      "type": "function"
    },
    {
      "inputs": [
        {
          "internalType": "address",
          "name": "newOwner",
          "type": "address"
        }
      ],
      "name": "transferOwnership",
      "outputs": [],
      "stateMutability": "nonpayable",
      "type": "function"
    },
    {
      "inputs": [
        {
          "internalType": "uint256",
          "name": "",
          "type": "uint256"
        }
      ],
      "name": "zombieToOwner",
      "outputs": [
        {
          "internalType": "address",
          "name": "",
          "type": "address"
        }
      ],
      "stateMutability": "view",
      "type": "function"
    },
    {
      "inputs": [
        {
          "internalType": "uint256",
          "name": "",
          "type": "uint256"
        }
      ],
      "name": "zombies",
      "outputs": [
        {
          "internalType": "string",
          "name": "name",
          "type": "string"
        },
        {
          "internalType": "uint256",
          "name": "dna",
          "type": "uint256"
        },
        {
          "internalType": "uint32",
          "name": "level",
          "type": "uint32"
        },
        {
          "internalType": "uint32",
          "name": "readyTime",
          "type": "uint32"
        },
        {
          "internalType": "uint16",
          "name": "winCount",
          "type": "uint16"
        },
        {
          "internalType": "uint16",
          "name": "lossCount",
          "type": "uint16"
        }
      ],
      "stateMutability": "view",
      "type": "function"
    },
    {
      "inputs": [
        {
          "internalType": "address",
          "name": "_address",
          "type": "address"
        }
      ],
      "name": "setKittyContractAddress",
      "outputs": [],
      "stateMutability": "nonpayable",
      "type": "function"
    },
    {
      "inputs": [
        {
          "internalType": "uint256",
          "name": "_zombieId",
          "type": "uint256"
        },
        {
          "internalType": "uint256",
          "name": "_kittyId",
          "type": "uint256"
        }
      ],
      "name": "feedOnKitty",
      "outputs": [],
      "stateMutability": "nonpayable",
      "type": "function"
    }
  ],
  "bytecode": "0x60806040526010600155600154600a6200001a9190620001fc565b6002556201518060035534801562000030575f80fd5b50335f806101000a81548173ffffffffffffffffffffffffffffffffffffffff021916908373ffffffffffffffffffffffffffffffffffffffff1602179055506200024c565b7f4e487b71000000000000000000000000000000000000000000000000000000005f52601160045260245ffd5b5f8160011c9050919050565b5f808291508390505b60018511156200010057808604811115620000d857620000d762000076565b5b6001851615620000e85780820291505b8081029050620000f885620000a3565b9450620000b8565b94509492505050565b5f826200011a5760019050620001ec565b8162000129575f9050620001ec565b81600181146200014257600281146200014d5762000183565b6001915050620001ec565b60ff84111562000162576200016162000076565b5b8360020a9150848211156200017c576200017b62000076565b5b50620001ec565b5060208310610133831016604e8410600b8410161715620001bd5782820a905083811115620001b757620001b662000076565b5b620001ec565b620001cc8484846001620000af565b92509050818404811115620001e657620001e562000076565b5b81810290505b9392505050565b5f819050919050565b5f6200020882620001f3565b91506200021583620001f3565b9250620002447fffffffffffffffffffffffffffffffffffffffffffffffffffffffffffffffff848462000109565b905092915050565b611862806200025a5f395ff3fe608060405234801561000f575f80fd5b506004361061007b575f3560e01c80635f4623f1116100595780635f4623f1146101005780637bff0a011461011c5780638da5cb5b14610138578063f2fde38b146101565761007b565b806317a7f4cc1461007f5780632052465e1461009b578063528b7b8f146100d0575b5f80fd5b61009960048036038101906100949190610bf2565b610172565b005b6100b560048036038101906100b09190610c30565b61028c565b6040516100c796959493929190610d2e565b60405180910390f35b6100ea60048036038101906100e59190610c30565b610394565b6040516100f79190610dd3565b60405180910390f35b61011a60048036038101906101159190610e16565b6103c4565b005b61013660048036038101906101319190610f6d565b610494565b005b610140610547565b60405161014d9190610dd3565b60405180910390f35b610170600480360381019061016b9190610e16565b61056a565b005b5f60075f9054906101000a900473ffffffffffffffffffffffffffffffffffffffff1673ffffffffffffffffffffffffffffffffffffffff1663e98b7f4d836040518263ffffffff1660e01b81526004016101cd9190610fb4565b61014060405180830381865afa1580156101e9573d5f803e3d5ffd5b505050506040513d601f19601f8201168201806040525081019061020d9190611016565b9091929394959697985090919293949596975090919293949596509091929394955090919293945090919293509091925090915090508091505061028783826040518060400160405280600581526020017f6b69747479000000000000000000000000000000000000000000000000000000815250610720565b505050565b6004818154811061029b575f80fd5b905f5260205f2090600302015f91509050805f0180546102ba9061111c565b80601f01602080910402602001604051908101604052809291908181526020018280546102e69061111c565b80156103315780601f1061030857610100808354040283529160200191610331565b820191905f5260205f20905b81548152906001019060200180831161031457829003601f168201915b505050505090806001015490806002015f9054906101000a900463ffffffff16908060020160049054906101000a900463ffffffff16908060020160089054906101000a900461ffff169080600201600a9054906101000a900461ffff16905086565b6005602052805f5260405f205f915054906101000a900473ffffffffffffffffffffffffffffffffffffffff1681565b5f8054906101000a900473ffffffffffffffffffffffffffffffffffffffff1673ffffffffffffffffffffffffffffffffffffffff163373ffffffffffffffffffffffffffffffffffffffff1614610451576040517f08c379a0000000000000000000000000000000000000000000000000000000008152600401610448906111bc565b60405180910390fd5b8060075f6101000a81548173ffffffffffffffffffffffffffffffffffffffff021916908373ffffffffffffffffffffffffffffffffffffffff16021790555050565b5f60065f3373ffffffffffffffffffffffffffffffffffffffff1673ffffffffffffffffffffffffffffffffffffffff1681526020019081526020015f205414610513576040517f08c379a000000000000000000000000000000000000000000000000000000000815260040161050a90611224565b60405180910390fd5b5f61051d826108fe565b905060648161052c919061126f565b8161053791906112cc565b90506105438282610941565b5050565b5f8054906101000a900473ffffffffffffffffffffffffffffffffffffffff1681565b5f8054906101000a900473ffffffffffffffffffffffffffffffffffffffff1673ffffffffffffffffffffffffffffffffffffffff163373ffffffffffffffffffffffffffffffffffffffff16146105f7576040517f08c379a00000000000000000000000000000000000000000000000000000000081526004016105ee906111bc565b60405180910390fd5b5f73ffffffffffffffffffffffffffffffffffffffff168173ffffffffffffffffffffffffffffffffffffffff1603610665576040517f08c379a000000000000000000000000000000000000000000000000000000000815260040161065c9061136f565b60405180910390fd5b8073ffffffffffffffffffffffffffffffffffffffff165f8054906101000a900473ffffffffffffffffffffffffffffffffffffffff1673ffffffffffffffffffffffffffffffffffffffff167f8be0079c531659141344cd1fd0a4f28419497f9722a3daafe3b4186f6b6457e060405160405180910390a3805f806101000a81548173ffffffffffffffffffffffffffffffffffffffff021916908373ffffffffffffffffffffffffffffffffffffffff16021790555050565b8260055f8281526020019081526020015f205f9054906101000a900473ffffffffffffffffffffffffffffffffffffffff1673ffffffffffffffffffffffffffffffffffffffff163373ffffffffffffffffffffffffffffffffffffffff16146107bf576040517f08c379a00000000000000000000000000000000000000000000000000000000081526004016107b6906113d7565b60405180910390fd5b5f600485815481106107d4576107d36113f5565b5b905f5260205f20906003020190506107eb81610b55565b61082a576040517f08c379a00000000000000000000000000000000000000000000000000000000081526004016108219061146c565b60405180910390fd5b60025484610838919061126f565b93505f600285836001015461084d919061148a565b61085791906114bd565b90507f8d53323b21b9f304546f6d3e61cde865451064d614aa4912f395b755a9d8cad98480519060200120036108ae576063606482610896919061126f565b826108a191906112cc565b6108ab919061148a565b90505b6108ed6040518060400160405280600681526020017f4e6f4e616d65000000000000000000000000000000000000000000000000000081525082610941565b6108f682610b7b565b505050505050565b5f80826040516020016109119190611527565b604051602081830303815290604052805190602001205f1c905060025481610939919061126f565b915050919050565b5f600480549050905060046040518060c00160405280858152602001848152602001600163ffffffff1681526020016003544261097e919061148a565b63ffffffff1681526020015f61ffff1681526020015f61ffff16815250908060018154018082558091505060019003905f5260205f2090600302015f909190919091505f820151815f0190816109d491906116da565b50602082015181600101556040820151816002015f6101000a81548163ffffffff021916908363ffffffff16021790555060608201518160020160046101000a81548163ffffffff021916908363ffffffff16021790555060808201518160020160086101000a81548161ffff021916908361ffff16021790555060a082015181600201600a6101000a81548161ffff021916908361ffff16021790555050503360055f8381526020019081526020015f205f6101000a81548173ffffffffffffffffffffffffffffffffffffffff021916908373ffffffffffffffffffffffffffffffffffffffff16021790555060065f3373ffffffffffffffffffffffffffffffffffffffff1673ffffffffffffffffffffffffffffffffffffffff1681526020019081526020015f205f815480929190610b10906117a9565b91905055507f88f026aacbbecc90c18411df4b1185fd8d9be2470f1962f192bf84a27d0704b7818484604051610b48939291906117f0565b60405180910390a1505050565b5f428260020160049054906101000a900463ffffffff1663ffffffff1611159050919050565b60035442610b89919061148a565b8160020160046101000a81548163ffffffff021916908363ffffffff16021790555050565b5f604051905090565b5f80fd5b5f80fd5b5f819050919050565b610bd181610bbf565b8114610bdb575f80fd5b50565b5f81359050610bec81610bc8565b92915050565b5f8060408385031215610c0857610c07610bb7565b5b5f610c1585828601610bde565b9250506020610c2685828601610bde565b9150509250929050565b5f60208284031215610c4557610c44610bb7565b5b5f610c5284828501610bde565b91505092915050565b5f81519050919050565b5f82825260208201905092915050565b5f5b83811015610c92578082015181840152602081019050610c77565b5f8484015250505050565b5f601f19601f8301169050919050565b5f610cb782610c5b565b610cc18185610c65565b9350610cd1818560208601610c75565b610cda81610c9d565b840191505092915050565b610cee81610bbf565b82525050565b5f63ffffffff82169050919050565b610d0c81610cf4565b82525050565b5f61ffff82169050919050565b610d2881610d12565b82525050565b5f60c0820190508181035f830152610d468189610cad565b9050610d556020830188610ce5565b610d626040830187610d03565b610d6f6060830186610d03565b610d7c6080830185610d1f565b610d8960a0830184610d1f565b979650505050505050565b5f73ffffffffffffffffffffffffffffffffffffffff82169050919050565b5f610dbd82610d94565b9050919050565b610dcd81610db3565b82525050565b5f602082019050610de65f830184610dc4565b92915050565b610df581610db3565b8114610dff575f80fd5b50565b5f81359050610e1081610dec565b92915050565b5f60208284031215610e2b57610e2a610bb7565b5b5f610e3884828501610e02565b91505092915050565b5f80fd5b5f80fd5b7f4e487b71000000000000000000000000000000000000000000000000000000005f52604160045260245ffd5b610e7f82610c9d565b810181811067ffffffffffffffff82111715610e9e57610e9d610e49565b5b80604052505050565b5f610eb0610bae565b9050610ebc8282610e76565b919050565b5f67ffffffffffffffff821115610edb57610eda610e49565b5b610ee482610c9d565b9050602081019050919050565b828183375f83830152505050565b5f610f11610f0c84610ec1565b610ea7565b905082815260208101848484011115610f2d57610f2c610e45565b5b610f38848285610ef1565b509392505050565b5f82601f830112610f5457610f53610e41565b5b8135610f64848260208601610eff565b91505092915050565b5f60208284031215610f8257610f81610bb7565b5b5f82013567ffffffffffffffff811115610f9f57610f9e610bbb565b5b610fab84828501610f40565b91505092915050565b5f602082019050610fc75f830184610ce5565b92915050565b5f8115159050919050565b610fe181610fcd565b8114610feb575f80fd5b50565b5f81519050610ffc81610fd8565b92915050565b5f8151905061101081610bc8565b92915050565b5f805f805f805f805f806101408b8d03121561103557611034610bb7565b5b5f6110428d828e01610fee565b9a505060206110538d828e01610fee565b99505060406110648d828e01611002565b98505060606110758d828e01611002565b97505060806110868d828e01611002565b96505060a06110978d828e01611002565b95505060c06110a88d828e01611002565b94505060e06110b98d828e01611002565b9350506101006110cb8d828e01611002565b9250506101206110dd8d828e01611002565b9150509295989b9194979a5092959850565b7f4e487b71000000000000000000000000000000000000000000000000000000005f52602260045260245ffd5b5f600282049050600182168061113357607f821691505b602082108103611146576111456110ef565b5b50919050565b7f4f6e6c7920746865206f776e65722063616e2063616c6c20746869732066756e5f8201527f6374696f6e000000000000000000000000000000000000000000000000000000602082015250565b5f6111a6602583610c65565b91506111b18261114c565b604082019050919050565b5f6020820190508181035f8301526111d38161119a565b9050919050565b7f596f7520616c7265616479206f776e2061207a6f6d6269652e000000000000005f82015250565b5f61120e601983610c65565b9150611219826111da565b602082019050919050565b5f6020820190508181035f83015261123b81611202565b9050919050565b7f4e487b71000000000000000000000000000000000000000000000000000000005f52601260045260245ffd5b5f61127982610bbf565b915061128483610bbf565b92508261129457611293611242565b5b828206905092915050565b7f4e487b71000000000000000000000000000000000000000000000000000000005f52601160045260245ffd5b5f6112d682610bbf565b91506112e183610bbf565b92508282039050818111156112f9576112f861129f565b5b92915050565b7f4e6577206f776e657220616464726573732063616e6e6f74206265207a65726f5f8201527f2061646472657373000000000000000000000000000000000000000000000000602082015250565b5f611359602883610c65565b9150611364826112ff565b604082019050919050565b5f6020820190508181035f8301526113868161134d565b9050919050565b7f4e6f7420746865206f776e6572206f662074686973207a6f6d626965000000005f82015250565b5f6113c1601c83610c65565b91506113cc8261138d565b602082019050919050565b5f6020820190508181035f8301526113ee816113b5565b9050919050565b7f4e487b71000000000000000000000000000000000000000000000000000000005f52603260045260245ffd5b7f5a6f6d626965206973206e6f74207265616479207965740000000000000000005f82015250565b5f611456601783610c65565b915061146182611422565b602082019050919050565b5f6020820190508181035f8301526114838161144a565b9050919050565b5f61149482610bbf565b915061149f83610bbf565b92508282019050808211156114b7576114b661129f565b5b92915050565b5f6114c782610bbf565b91506114d283610bbf565b9250826114e2576114e1611242565b5b828204905092915050565b5f81905092915050565b5f61150182610c5b565b61150b81856114ed565b935061151b818560208601610c75565b80840191505092915050565b5f61153282846114f7565b915081905092915050565b5f819050815f5260205f209050919050565b5f6020601f8301049050919050565b5f82821b905092915050565b5f600883026115997fffffffffffffffffffffffffffffffffffffffffffffffffffffffffffffffff8261155e565b6115a3868361155e565b95508019841693508086168417925050509392505050565b5f819050919050565b5f6115de6115d96115d484610bbf565b6115bb565b610bbf565b9050919050565b5f819050919050565b6115f7836115c4565b61160b611603826115e5565b84845461156a565b825550505050565b5f90565b61161f611613565b61162a8184846115ee565b505050565b5b8181101561164d576116425f82611617565b600181019050611630565b5050565b601f821115611692576116638161153d565b61166c8461154f565b8101602085101561167b578190505b61168f6116878561154f565b83018261162f565b50505b505050565b5f82821c905092915050565b5f6116b25f1984600802611697565b1980831691505092915050565b5f6116ca83836116a3565b9150826002028217905092915050565b6116e382610c5b565b67ffffffffffffffff8111156116fc576116fb610e49565b5b611706825461111c565b611711828285611651565b5f60209050601f831160018114611742575f8415611730578287015190505b61173a85826116bf565b8655506117a1565b601f1984166117508661153d565b5f5b8281101561177757848901518255600182019150602085019450602081019050611752565b868310156117945784890151611790601f8916826116a3565b8355505b6001600288020188555050505b505050505050565b5f6117b382610bbf565b91507fffffffffffffffffffffffffffffffffffffffffffffffffffffffffffffffff82036117e5576117e461129f565b5b600182019050919050565b5f6060820190506118035f830186610ce5565b81810360208301526118158185610cad565b90506118246040830184610ce5565b94935050505056fea264697066735822122066fec40a86df374c80407296031acd26e6ecb47f95499848185ff0811d7e325564736f6c63430008150033",
  "immutableReferences": {},
  "source": "// SPDX-License-Identifier: MIT\npragma solidity ^0.8.0;\n\nimport \"./zombiefactory.sol\";\n\ninterface KittyInterface {\n    function getKitty(uint256 _id) external view returns (\n        bool isGestating,\n        bool isReady,\n        uint256 cooldownIndex,\n        uint256 nextActionAt,\n        uint256 siringWithId,\n        uint256 birthTime,\n        uint256 matronId,\n        uint256 sireId,\n        uint256 generation,\n        uint256 genes\n    );\n}\n\ncontract ZombieFeeding is ZombieFactory {\n\n    KittyInterface kittyContract;\n\n    modifier onlyOwnerOf(uint256 _zombieId) {\n        require(msg.sender == zombieToOwner[_zombieId], \"Not the owner of this zombie\");\n        _;\n    }\n\n    function setKittyContractAddress(address _address) external onlyOwner {\n        kittyContract = KittyInterface(_address);\n    }\n\n    function _triggerCooldown(Zombie storage _zombie) internal {\n        _zombie.readyTime = uint32(block.timestamp + cooldownTime);\n    }\n\n    function _isReady(Zombie storage _zombie) internal view returns (bool) {\n        return (_zombie.readyTime <= block.timestamp);\n    }\n\n    function feedAndMultiply(uint256 _zombieId, uint256 _targetDna, string memory _species) internal onlyOwnerOf(_zombieId) {\n        Zombie storage myZombie = zombies[_zombieId];\n        require(_isReady(myZombie), \"Zombie is not ready yet\");\n        _targetDna = _targetDna % dnaModulus;\n        uint256 newDna = (myZombie.dna + _targetDna) / 2;\n        if (keccak256(bytes(_species)) == keccak256(\"kitty\")) {\n            newDna = newDna - newDna % 100 + 99;\n        }\n        _createZombie(\"NoName\", newDna);\n        _triggerCooldown(myZombie);\n    }\n\n    function feedOnKitty(uint256 _zombieId, uint256 _kittyId) public {\n        uint256 kittyDna;\n        (,,,,,,,,,kittyDna) = kittyContract.getKitty(_kittyId);\n        feedAndMultiply(_zombieId, kittyDna, \"kitty\");\n    }\n}\n\n",
  "sourcePath": "/home/inkz/practice/solidity/cryptoZombies/advance/contracts/zombiefeeding.sol",
  "compiler": {
    "name": "solc",
    "version": "0.8.21+commit.d9974bed.Emscripten.clang"
  },
  "schemaVersion": "3.4.16",
  "updatedAt": "2024-03-21T08:21:06.458Z",
  "devdoc": {
    "kind": "dev",
    "methods": {},
    "version": 1
  },
  "userdoc": {
    "kind": "user",
    "methods": {},
    "version": 1
  }
}