{
  "contractName": "ZombieOwnership",
  "abi": [
    {
      "anonymous": false,
      "inputs": [
        {
          "indexed": true,
          "internalType": "address",
          "name": "_owner",
          "type": "address"
        },
        {
          "indexed": true,
          "internalType": "address",
          "name": "_approved",
          "type": "address"
        },
        {
          "indexed": false,
          "internalType": "uint256",
          "name": "_tokenId",
          "type": "uint256"
        }
      ],
      "name": "Approval",
      "type": "event"
    },
    {
      "anonymous": false,
      "inputs": [
        {
          "indexed": false,
          "internalType": "uint256",
          "name": "zombieId",
          "type": "uint256"
        },
        {
          "indexed": false,
          "internalType": "string",
          "name": "name",
          "type": "string"
        },
        {
          "indexed": false,
          "internalType": "uint256",
          "name": "dna",
          "type": "uint256"
        }
      ],
      "name": "NewZombie",
      "type": "event"
    },
    {
      "anonymous": false,
      "inputs": [
        {
          "indexed": true,
          "internalType": "address",
          "name": "previousOwner",
          "type": "address"
        },
        {
          "indexed": true,
          "internalType": "address",
          "name": "newOwner",
          "type": "address"
        }
      ],
      "name": "OwnershipTransferred",
      "type": "event"
    },
    {
      "anonymous": false,
      "inputs": [
        {
          "indexed": true,
          "internalType": "address",
          "name": "_from",
          "type": "address"
        },
        {
          "indexed": true,
          "internalType": "address",
          "name": "_to",
          "type": "address"
        },
        {
          "indexed": false,
          "internalType": "uint256",
          "name": "_tokenId",
          "type": "uint256"
        }
      ],
      "name": "Transfer",
      "type": "event"
    },
    {
      "inputs": [
        {
          "internalType": "uint256",
          "name": "_zombieId",
          "type": "uint256"
        },
        {
          "internalType": "uint256",
          "name": "_targetId",
          "type": "uint256"
        }
      ],
      "name": "attack",
      "outputs": [],
      "stateMutability": "nonpayable",
      "type": "function"
    },
    {
      "inputs": [],
      "name": "attackVictoryProbability",
      "outputs": [
        {
          "internalType": "uint256",
          "name": "",
          "type": "uint256"
        }
      ],
      "stateMutability": "view",
      "type": "function"
    },
    {
      "inputs": [
        {
          "internalType": "uint256",
          "name": "_zombieId",
          "type": "uint256"
        },
        {
          "internalType": "uint256",
          "name": "_newDna",
          "type": "uint256"
        }
      ],
      "name": "changeDna",
      "outputs": [],
      "stateMutability": "nonpayable",
      "type": "function"
    },
    {
      "inputs": [
        {
          "internalType": "uint256",
          "name": "_zombieId",
          "type": "uint256"
        },
        {
          "internalType": "string",
          "name": "_newName",
          "type": "string"
        }
      ],
      "name": "changeName",
      "outputs": [],
      "stateMutability": "nonpayable",
      "type": "function"
    },
    {
      "inputs": [
        {
          "internalType": "string",
          "name": "_name",
          "type": "string"
        }
      ],
      "name": "createRandomZombie",
      "outputs": [],
      "stateMutability": "nonpayable",
      "type": "function"
    },
    {
      "inputs": [
        {
          "internalType": "uint256",
          "name": "_zombieId",
          "type": "uint256"
        },
        {
          "internalType": "uint256",
          "name": "_kittyId",
          "type": "uint256"
        }
      ],
      "name": "feedOnKitty",
      "outputs": [],
      "stateMutability": "nonpayable",
      "type": "function"
    },
    {
      "inputs": [
        {
          "internalType": "address",
          "name": "_owner",
          "type": "address"
        }
      ],
      "name": "getZombiesByOwner",
      "outputs": [
        {
          "internalType": "uint256[]",
          "name": "",
          "type": "uint256[]"
        }
      ],
      "stateMutability": "view",
      "type": "function"
    },
    {
      "inputs": [
        {
          "internalType": "uint256",
          "name": "_zombieId",
          "type": "uint256"
        }
      ],
      "name": "levelUp",
      "outputs": [],
      "stateMutability": "payable",
      "type": "function"
    },
    {
      "inputs": [],
      "name": "levelUpFee",
      "outputs": [
        {
          "internalType": "uint256",
          "name": "",
          "type": "uint256"
        }
      ],
      "stateMutability": "view",
      "type": "function"
    },
    {
      "inputs": [],
      "name": "owner",
      "outputs": [
        {
          "internalType": "address",
          "name": "",
          "type": "address"
        }
      ],
      "stateMutability": "view",
      "type": "function"
    },
    {
      "inputs": [],
      "name": "randNonce",
      "outputs": [
        {
          "internalType": "uint256",
          "name": "",
          "type": "uint256"
        }
      ],
      "stateMutability": "view",
      "type": "function"
    },
    {
      "inputs": [
        {
          "internalType": "address",
          "name": "_address",
          "type": "address"
        }
      ],
      "name": "setKittyContractAddress",
      "outputs": [],
      "stateMutability": "nonpayable",
      "type": "function"
    },
    {
      "inputs": [
        {
          "internalType": "uint256",
          "name": "_fee",
          "type": "uint256"
        }
      ],
      "name": "setLevelUpFee",
      "outputs": [],
      "stateMutability": "nonpayable",
      "type": "function"
    },
    {
      "inputs": [
        {
          "internalType": "address",
          "name": "newOwner",
          "type": "address"
        }
      ],
      "name": "transferOwnership",
      "outputs": [],
      "stateMutability": "nonpayable",
      "type": "function"
    },
    {
      "inputs": [],
      "name": "withdraw",
      "outputs": [],
      "stateMutability": "nonpayable",
      "type": "function"
    },
    {
      "inputs": [
        {
          "internalType": "uint256",
          "name": "",
          "type": "uint256"
        }
      ],
      "name": "zombieToOwner",
      "outputs": [
        {
          "internalType": "address",
          "name": "",
          "type": "address"
        }
      ],
      "stateMutability": "view",
      "type": "function"
    },
    {
      "inputs": [
        {
          "internalType": "uint256",
          "name": "",
          "type": "uint256"
        }
      ],
      "name": "zombies",
      "outputs": [
        {
          "internalType": "string",
          "name": "name",
          "type": "string"
        },
        {
          "internalType": "uint256",
          "name": "dna",
          "type": "uint256"
        },
        {
          "internalType": "uint32",
          "name": "level",
          "type": "uint32"
        },
        {
          "internalType": "uint32",
          "name": "readyTime",
          "type": "uint32"
        },
        {
          "internalType": "uint16",
          "name": "winCount",
          "type": "uint16"
        },
        {
          "internalType": "uint16",
          "name": "lossCount",
          "type": "uint16"
        }
      ],
      "stateMutability": "view",
      "type": "function"
    },
    {
      "inputs": [
        {
          "internalType": "address",
          "name": "_owner",
          "type": "address"
        }
      ],
      "name": "balanceOf",
      "outputs": [
        {
          "internalType": "uint256",
          "name": "",
          "type": "uint256"
        }
      ],
      "stateMutability": "view",
      "type": "function"
    },
    {
      "inputs": [
        {
          "internalType": "uint256",
          "name": "_tokenId",
          "type": "uint256"
        }
      ],
      "name": "ownerOf",
      "outputs": [
        {
          "internalType": "address",
          "name": "",
          "type": "address"
        }
      ],
      "stateMutability": "view",
      "type": "function"
    },
    {
      "inputs": [
        {
          "internalType": "address",
          "name": "_to",
          "type": "address"
        },
        {
          "internalType": "uint256",
          "name": "_tokenId",
          "type": "uint256"
        }
      ],
      "name": "transfer",
      "outputs": [],
      "stateMutability": "nonpayable",
      "type": "function"
    },
    {
      "inputs": [
        {
          "internalType": "address",
          "name": "_to",
          "type": "address"
        },
        {
          "internalType": "uint256",
          "name": "_tokenId",
          "type": "uint256"
        }
      ],
      "name": "approve",
      "outputs": [],
      "stateMutability": "nonpayable",
      "type": "function"
    },
    {
      "inputs": [
        {
          "internalType": "uint256",
          "name": "_tokenId",
          "type": "uint256"
        }
      ],
      "name": "takeOwnership",
      "outputs": [],
      "stateMutability": "nonpayable",
      "type": "function"
    }
  ],
  "bytecode": "0x60806040526010600155600154600a6200001a919062000210565b6002556201518060035566038d7ea4c680006008555f6009556046600a5534801562000044575f80fd5b50335f806101000a81548173ffffffffffffffffffffffffffffffffffffffff021916908373ffffffffffffffffffffffffffffffffffffffff16021790555062000260565b7f4e487b71000000000000000000000000000000000000000000000000000000005f52601160045260245ffd5b5f8160011c9050919050565b5f808291508390505b60018511156200011457808604811115620000ec57620000eb6200008a565b5b6001851615620000fc5780820291505b80810290506200010c85620000b7565b9450620000cc565b94509492505050565b5f826200012e576001905062000200565b816200013d575f905062000200565b8160018114620001565760028114620001615762000197565b600191505062000200565b60ff8411156200017657620001756200008a565b5b8360020a91508482111562000190576200018f6200008a565b5b5062000200565b5060208310610133831016604e8410600b8410161715620001d15782820a905083811115620001cb57620001ca6200008a565b5b62000200565b620001e08484846001620000c3565b92509050818404811115620001fa57620001f96200008a565b5b81810290505b9392505050565b5f819050919050565b5f6200021c8262000207565b9150620002298362000207565b9250620002587fffffffffffffffffffffffffffffffffffffffffffffffffffffffffffffffff84846200011d565b905092915050565b612d3a806200026e5f395ff3fe608060405260043610610134575f3560e01c806370a08231116100aa578063b2e6ceeb1161006e578063b2e6ceeb14610409578063c39cbef114610431578063c4114b1214610459578063ccf670f814610483578063e1fa7638146104ab578063f2fde38b146104d357610134565b806370a08231146103295780637bff0a01146103655780638da5cb5b1461038d578063a9059cbb146103b7578063a94d153b146103df57610134565b80634412e104116100fc5780634412e104146101fb578063528b7b8f146102375780635f4623f1146102735780635faf28801461029b57806361e01356146102c35780636352211e146102ed57610134565b8063095ea7b3146101385780630ce90ec21461016057806317a7f4cc1461017c5780632052465e146101a45780633ccfd60b146101e5575b5f80fd5b348015610143575f80fd5b5061015e60048036038101906101599190611d88565b6104fb565b005b61017a60048036038101906101759190611dc6565b610653565b005b348015610187575f80fd5b506101a2600480360381019061019d9190611df1565b6106fb565b005b3480156101af575f80fd5b506101ca60048036038101906101c59190611dc6565b610815565b6040516101dc96959493929190611f02565b60405180910390f35b3480156101f0575f80fd5b506101f961091d565b005b348015610206575f80fd5b50610221600480360381019061021c9190611f68565b610a0f565b60405161022e919061204a565b60405180910390f35b348015610242575f80fd5b5061025d60048036038101906102589190611dc6565b610b5a565b60405161026a9190612079565b60405180910390f35b34801561027e575f80fd5b5061029960048036038101906102949190611f68565b610b8a565b005b3480156102a6575f80fd5b506102c160048036038101906102bc9190611df1565b610c5a565b005b3480156102ce575f80fd5b506102d7610da6565b6040516102e49190612092565b60405180910390f35b3480156102f8575f80fd5b50610313600480360381019061030e9190611dc6565b610dac565b6040516103209190612079565b60405180910390f35b348015610334575f80fd5b5061034f600480360381019061034a9190611f68565b610de5565b60405161035c9190612092565b60405180910390f35b348015610370575f80fd5b5061038b600480360381019061038691906121d7565b610e2b565b005b348015610398575f80fd5b506103a1610ede565b6040516103ae9190612079565b60405180910390f35b3480156103c2575f80fd5b506103dd60048036038101906103d89190611d88565b610f01565b005b3480156103ea575f80fd5b506103f3610fb0565b6040516104009190612092565b60405180910390f35b348015610414575f80fd5b5061042f600480360381019061042a9190611dc6565b610fb6565b005b34801561043c575f80fd5b506104576004803603810190610452919061221e565b61106f565b005b348015610464575f80fd5b5061046d6111c3565b60405161047a9190612092565b60405180910390f35b34801561048e575f80fd5b506104a960048036038101906104a49190611dc6565b6111c9565b005b3480156104b6575f80fd5b506104d160048036038101906104cc9190611df1565b611260565b005b3480156104de575f80fd5b506104f960048036038101906104f49190611f68565b6114ec565b005b8060055f8281526020019081526020015f205f9054906101000a900473ffffffffffffffffffffffffffffffffffffffff1673ffffffffffffffffffffffffffffffffffffffff163373ffffffffffffffffffffffffffffffffffffffff161461059a576040517f08c379a0000000000000000000000000000000000000000000000000000000008152600401610591906122c2565b60405180910390fd5b82600b5f8481526020019081526020015f205f6101000a81548173ffffffffffffffffffffffffffffffffffffffff021916908373ffffffffffffffffffffffffffffffffffffffff1602179055508273ffffffffffffffffffffffffffffffffffffffff163373ffffffffffffffffffffffffffffffffffffffff167f8c5be1e5ebec7d5bd14f71427d1e84f3dd0314c0f7b2291e5b200ac8c7c3b925846040516106469190612092565b60405180910390a3505050565b6008543414610697576040517f08c379a000000000000000000000000000000000000000000000000000000000815260040161068e9061232a565b60405180910390fd5b600481815481106106ab576106aa612348565b5b905f5260205f2090600302016002015f81819054906101000a900463ffffffff16809291906106d9906123a2565b91906101000a81548163ffffffff021916908363ffffffff1602179055505050565b5f60075f9054906101000a900473ffffffffffffffffffffffffffffffffffffffff1673ffffffffffffffffffffffffffffffffffffffff1663e98b7f4d836040518263ffffffff1660e01b81526004016107569190612092565b61014060405180830381865afa158015610772573d5f803e3d5ffd5b505050506040513d601f19601f820116820180604052508101906107969190612416565b9091929394959697985090919293949596975090919293949596509091929394955090919293945090919293509091925090915090508091505061081083826040518060400160405280600581526020017f6b697474790000000000000000000000000000000000000000000000000000008152506116a2565b505050565b60048181548110610824575f80fd5b905f5260205f2090600302015f91509050805f0180546108439061251c565b80601f016020809104026020016040519081016040528092919081815260200182805461086f9061251c565b80156108ba5780601f10610891576101008083540402835291602001916108ba565b820191905f5260205f20905b81548152906001019060200180831161089d57829003601f168201915b505050505090806001015490806002015f9054906101000a900463ffffffff16908060020160049054906101000a900463ffffffff16908060020160089054906101000a900461ffff169080600201600a9054906101000a900461ffff16905086565b5f8054906101000a900473ffffffffffffffffffffffffffffffffffffffff1673ffffffffffffffffffffffffffffffffffffffff163373ffffffffffffffffffffffffffffffffffffffff16146109aa576040517f08c379a00000000000000000000000000000000000000000000000000000000081526004016109a1906125bc565b60405180910390fd5b5f8054906101000a900473ffffffffffffffffffffffffffffffffffffffff1673ffffffffffffffffffffffffffffffffffffffff166108fc4790811502906040515f60405180830381858888f19350505050158015610a0c573d5f803e3d5ffd5b50565b60605f60065f8473ffffffffffffffffffffffffffffffffffffffff1673ffffffffffffffffffffffffffffffffffffffff1681526020019081526020015f205467ffffffffffffffff811115610a6957610a686120b3565b5b604051908082528060200260200182016040528015610a975781602001602082028036833780820191505090505b5090505f805b600480549050811015610b4f578473ffffffffffffffffffffffffffffffffffffffff1660055f8381526020019081526020015f205f9054906101000a900473ffffffffffffffffffffffffffffffffffffffff1673ffffffffffffffffffffffffffffffffffffffff1603610b3c5780838381518110610b2157610b20612348565b5b6020026020010181815250508180610b38906125da565b9250505b8080610b47906125da565b915050610a9d565b508192505050919050565b6005602052805f5260405f205f915054906101000a900473ffffffffffffffffffffffffffffffffffffffff1681565b5f8054906101000a900473ffffffffffffffffffffffffffffffffffffffff1673ffffffffffffffffffffffffffffffffffffffff163373ffffffffffffffffffffffffffffffffffffffff1614610c17576040517f08c379a0000000000000000000000000000000000000000000000000000000008152600401610c0e906125bc565b60405180910390fd5b8060075f6101000a81548173ffffffffffffffffffffffffffffffffffffffff021916908373ffffffffffffffffffffffffffffffffffffffff16021790555050565b6014828160048281548110610c7257610c71612348565b5b905f5260205f2090600302016002015f9054906101000a900463ffffffff1663ffffffff161015610cd8576040517f08c379a0000000000000000000000000000000000000000000000000000000008152600401610ccf9061266b565b60405180910390fd5b8360055f8281526020019081526020015f205f9054906101000a900473ffffffffffffffffffffffffffffffffffffffff1673ffffffffffffffffffffffffffffffffffffffff163373ffffffffffffffffffffffffffffffffffffffff1614610d77576040517f08c379a0000000000000000000000000000000000000000000000000000000008152600401610d6e906122c2565b60405180910390fd5b8360048681548110610d8c57610d8b612348565b5b905f5260205f209060030201600101819055505050505050565b60095481565b5f60055f8381526020019081526020015f205f9054906101000a900473ffffffffffffffffffffffffffffffffffffffff169050919050565b5f60065f8373ffffffffffffffffffffffffffffffffffffffff1673ffffffffffffffffffffffffffffffffffffffff1681526020019081526020015f20549050919050565b5f60065f3373ffffffffffffffffffffffffffffffffffffffff1673ffffffffffffffffffffffffffffffffffffffff1681526020019081526020015f205414610eaa576040517f08c379a0000000000000000000000000000000000000000000000000000000008152600401610ea1906126d3565b60405180910390fd5b5f610eb482611880565b9050606481610ec3919061271e565b81610ece919061274e565b9050610eda82826118c3565b5050565b5f8054906101000a900473ffffffffffffffffffffffffffffffffffffffff1681565b8060055f8281526020019081526020015f205f9054906101000a900473ffffffffffffffffffffffffffffffffffffffff1673ffffffffffffffffffffffffffffffffffffffff163373ffffffffffffffffffffffffffffffffffffffff1614610fa0576040517f08c379a0000000000000000000000000000000000000000000000000000000008152600401610f97906122c2565b60405180910390fd5b610fab338484611ad7565b505050565b600a5481565b3373ffffffffffffffffffffffffffffffffffffffff16600b5f8381526020019081526020015f205f9054906101000a900473ffffffffffffffffffffffffffffffffffffffff1673ffffffffffffffffffffffffffffffffffffffff1614611054576040517f08c379a000000000000000000000000000000000000000000000000000000000815260040161104b906127cb565b60405180910390fd5b5f61105e82610dac565b905061106b813384611ad7565b5050565b600282816004828154811061108757611086612348565b5b905f5260205f2090600302016002015f9054906101000a900463ffffffff1663ffffffff1610156110ed576040517f08c379a00000000000000000000000000000000000000000000000000000000081526004016110e49061266b565b60405180910390fd5b8360055f8281526020019081526020015f205f9054906101000a900473ffffffffffffffffffffffffffffffffffffffff1673ffffffffffffffffffffffffffffffffffffffff163373ffffffffffffffffffffffffffffffffffffffff161461118c576040517f08c379a0000000000000000000000000000000000000000000000000000000008152600401611183906122c2565b60405180910390fd5b83600486815481106111a1576111a0612348565b5b905f5260205f2090600302015f0190816111bb9190612986565b505050505050565b60085481565b5f8054906101000a900473ffffffffffffffffffffffffffffffffffffffff1673ffffffffffffffffffffffffffffffffffffffff163373ffffffffffffffffffffffffffffffffffffffff1614611256576040517f08c379a000000000000000000000000000000000000000000000000000000000815260040161124d906125bc565b60405180910390fd5b8060088190555050565b8160055f8281526020019081526020015f205f9054906101000a900473ffffffffffffffffffffffffffffffffffffffff1673ffffffffffffffffffffffffffffffffffffffff163373ffffffffffffffffffffffffffffffffffffffff16146112ff576040517f08c379a00000000000000000000000000000000000000000000000000000000081526004016112f6906122c2565b60405180910390fd5b5f6004848154811061131457611313612348565b5b905f5260205f20906003020190505f6004848154811061133757611336612348565b5b905f5260205f20906003020190505f6113506064611c38565b9050600a5481116114605782600201600881819054906101000a900461ffff168092919061137d90612a55565b91906101000a81548161ffff021916908361ffff16021790555050826002015f81819054906101000a900463ffffffff16809291906113bb906123a2565b91906101000a81548163ffffffff021916908363ffffffff1602179055505081600201600a81819054906101000a900461ffff16809291906113fc90612a55565b91906101000a81548161ffff021916908361ffff1602179055505061145b8683600101546040518060400160405280600681526020017f7a6f6d62696500000000000000000000000000000000000000000000000000008152506116a2565b6114e4565b82600201600a81819054906101000a900461ffff168092919061148290612a55565b91906101000a81548161ffff021916908361ffff1602179055505081600201600881819054906101000a900461ffff16809291906114bf90612a55565b91906101000a81548161ffff021916908361ffff160217905550506114e383611c91565b5b505050505050565b5f8054906101000a900473ffffffffffffffffffffffffffffffffffffffff1673ffffffffffffffffffffffffffffffffffffffff163373ffffffffffffffffffffffffffffffffffffffff1614611579576040517f08c379a0000000000000000000000000000000000000000000000000000000008152600401611570906125bc565b60405180910390fd5b5f73ffffffffffffffffffffffffffffffffffffffff168173ffffffffffffffffffffffffffffffffffffffff16036115e7576040517f08c379a00000000000000000000000000000000000000000000000000000000081526004016115de90612aee565b60405180910390fd5b8073ffffffffffffffffffffffffffffffffffffffff165f8054906101000a900473ffffffffffffffffffffffffffffffffffffffff1673ffffffffffffffffffffffffffffffffffffffff167f8be0079c531659141344cd1fd0a4f28419497f9722a3daafe3b4186f6b6457e060405160405180910390a3805f806101000a81548173ffffffffffffffffffffffffffffffffffffffff021916908373ffffffffffffffffffffffffffffffffffffffff16021790555050565b8260055f8281526020019081526020015f205f9054906101000a900473ffffffffffffffffffffffffffffffffffffffff1673ffffffffffffffffffffffffffffffffffffffff163373ffffffffffffffffffffffffffffffffffffffff1614611741576040517f08c379a0000000000000000000000000000000000000000000000000000000008152600401611738906122c2565b60405180910390fd5b5f6004858154811061175657611755612348565b5b905f5260205f209060030201905061176d81611cc4565b6117ac576040517f08c379a00000000000000000000000000000000000000000000000000000000081526004016117a390612b56565b60405180910390fd5b600254846117ba919061271e565b93505f60028583600101546117cf9190612b74565b6117d99190612ba7565b90507f8d53323b21b9f304546f6d3e61cde865451064d614aa4912f395b755a9d8cad9848051906020012003611830576063606482611818919061271e565b82611823919061274e565b61182d9190612b74565b90505b61186f6040518060400160405280600681526020017f4e6f4e616d650000000000000000000000000000000000000000000000000000815250826118c3565b61187882611c91565b505050505050565b5f80826040516020016118939190612c11565b604051602081830303815290604052805190602001205f1c9050600254816118bb919061271e565b915050919050565b5f600480549050905060046040518060c00160405280858152602001848152602001600163ffffffff168152602001600354426119009190612b74565b63ffffffff1681526020015f61ffff1681526020015f61ffff16815250908060018154018082558091505060019003905f5260205f2090600302015f909190919091505f820151815f0190816119569190612986565b50602082015181600101556040820151816002015f6101000a81548163ffffffff021916908363ffffffff16021790555060608201518160020160046101000a81548163ffffffff021916908363ffffffff16021790555060808201518160020160086101000a81548161ffff021916908361ffff16021790555060a082015181600201600a6101000a81548161ffff021916908361ffff16021790555050503360055f8381526020019081526020015f205f6101000a81548173ffffffffffffffffffffffffffffffffffffffff021916908373ffffffffffffffffffffffffffffffffffffffff16021790555060065f3373ffffffffffffffffffffffffffffffffffffffff1673ffffffffffffffffffffffffffffffffffffffff1681526020019081526020015f205f815480929190611a92906125da565b91905055507f88f026aacbbecc90c18411df4b1185fd8d9be2470f1962f192bf84a27d0704b7818484604051611aca93929190612c27565b60405180910390a1505050565b600160065f8473ffffffffffffffffffffffffffffffffffffffff1673ffffffffffffffffffffffffffffffffffffffff1681526020019081526020015f205f828254611b249190612b74565b92505081905550600160065f8573ffffffffffffffffffffffffffffffffffffffff1673ffffffffffffffffffffffffffffffffffffffff1681526020019081526020015f205f828254611b78919061274e565b925050819055508160055f8381526020019081526020015f205f6101000a81548173ffffffffffffffffffffffffffffffffffffffff021916908373ffffffffffffffffffffffffffffffffffffffff1602179055508173ffffffffffffffffffffffffffffffffffffffff168373ffffffffffffffffffffffffffffffffffffffff167fddf252ad1be2c89b69c2b068fc378daa952ba7f163c4a11628f55a4df523b3ef83604051611c2b9190612092565b60405180910390a3505050565b5f60095f815480929190611c4b906125da565b9190505550814233600954604051602001611c6893929190612cc8565b604051602081830303815290604052805190602001205f1c611c8a919061271e565b9050919050565b60035442611c9f9190612b74565b8160020160046101000a81548163ffffffff021916908363ffffffff16021790555050565b5f428260020160049054906101000a900463ffffffff1663ffffffff1611159050919050565b5f604051905090565b5f80fd5b5f80fd5b5f73ffffffffffffffffffffffffffffffffffffffff82169050919050565b5f611d2482611cfb565b9050919050565b611d3481611d1a565b8114611d3e575f80fd5b50565b5f81359050611d4f81611d2b565b92915050565b5f819050919050565b611d6781611d55565b8114611d71575f80fd5b50565b5f81359050611d8281611d5e565b92915050565b5f8060408385031215611d9e57611d9d611cf3565b5b5f611dab85828601611d41565b9250506020611dbc85828601611d74565b9150509250929050565b5f60208284031215611ddb57611dda611cf3565b5b5f611de884828501611d74565b91505092915050565b5f8060408385031215611e0757611e06611cf3565b5b5f611e1485828601611d74565b9250506020611e2585828601611d74565b9150509250929050565b5f81519050919050565b5f82825260208201905092915050565b5f5b83811015611e66578082015181840152602081019050611e4b565b5f8484015250505050565b5f601f19601f8301169050919050565b5f611e8b82611e2f565b611e958185611e39565b9350611ea5818560208601611e49565b611eae81611e71565b840191505092915050565b611ec281611d55565b82525050565b5f63ffffffff82169050919050565b611ee081611ec8565b82525050565b5f61ffff82169050919050565b611efc81611ee6565b82525050565b5f60c0820190508181035f830152611f1a8189611e81565b9050611f296020830188611eb9565b611f366040830187611ed7565b611f436060830186611ed7565b611f506080830185611ef3565b611f5d60a0830184611ef3565b979650505050505050565b5f60208284031215611f7d57611f7c611cf3565b5b5f611f8a84828501611d41565b91505092915050565b5f81519050919050565b5f82825260208201905092915050565b5f819050602082019050919050565b611fc581611d55565b82525050565b5f611fd68383611fbc565b60208301905092915050565b5f602082019050919050565b5f611ff882611f93565b6120028185611f9d565b935061200d83611fad565b805f5b8381101561203d5781516120248882611fcb565b975061202f83611fe2565b925050600181019050612010565b5085935050505092915050565b5f6020820190508181035f8301526120628184611fee565b905092915050565b61207381611d1a565b82525050565b5f60208201905061208c5f83018461206a565b92915050565b5f6020820190506120a55f830184611eb9565b92915050565b5f80fd5b5f80fd5b7f4e487b71000000000000000000000000000000000000000000000000000000005f52604160045260245ffd5b6120e982611e71565b810181811067ffffffffffffffff82111715612108576121076120b3565b5b80604052505050565b5f61211a611cea565b905061212682826120e0565b919050565b5f67ffffffffffffffff821115612145576121446120b3565b5b61214e82611e71565b9050602081019050919050565b828183375f83830152505050565b5f61217b6121768461212b565b612111565b905082815260208101848484011115612197576121966120af565b5b6121a284828561215b565b509392505050565b5f82601f8301126121be576121bd6120ab565b5b81356121ce848260208601612169565b91505092915050565b5f602082840312156121ec576121eb611cf3565b5b5f82013567ffffffffffffffff81111561220957612208611cf7565b5b612215848285016121aa565b91505092915050565b5f806040838503121561223457612233611cf3565b5b5f61224185828601611d74565b925050602083013567ffffffffffffffff81111561226257612261611cf7565b5b61226e858286016121aa565b9150509250929050565b7f4e6f7420746865206f776e6572206f662074686973207a6f6d626965000000005f82015250565b5f6122ac601c83611e39565b91506122b782612278565b602082019050919050565b5f6020820190508181035f8301526122d9816122a0565b9050919050565b7f496e636f7272656374206c6576656c20757020666565000000000000000000005f82015250565b5f612314601683611e39565b915061231f826122e0565b602082019050919050565b5f6020820190508181035f83015261234181612308565b9050919050565b7f4e487b71000000000000000000000000000000000000000000000000000000005f52603260045260245ffd5b7f4e487b71000000000000000000000000000000000000000000000000000000005f52601160045260245ffd5b5f6123ac82611ec8565b915063ffffffff82036123c2576123c1612375565b5b600182019050919050565b5f8115159050919050565b6123e1816123cd565b81146123eb575f80fd5b50565b5f815190506123fc816123d8565b92915050565b5f8151905061241081611d5e565b92915050565b5f805f805f805f805f806101408b8d03121561243557612434611cf3565b5b5f6124428d828e016123ee565b9a505060206124538d828e016123ee565b99505060406124648d828e01612402565b98505060606124758d828e01612402565b97505060806124868d828e01612402565b96505060a06124978d828e01612402565b95505060c06124a88d828e01612402565b94505060e06124b98d828e01612402565b9350506101006124cb8d828e01612402565b9250506101206124dd8d828e01612402565b9150509295989b9194979a5092959850565b7f4e487b71000000000000000000000000000000000000000000000000000000005f52602260045260245ffd5b5f600282049050600182168061253357607f821691505b602082108103612546576125456124ef565b5b50919050565b7f4f6e6c7920746865206f776e65722063616e2063616c6c20746869732066756e5f8201527f6374696f6e000000000000000000000000000000000000000000000000000000602082015250565b5f6125a6602583611e39565b91506125b18261254c565b604082019050919050565b5f6020820190508181035f8301526125d38161259a565b9050919050565b5f6125e482611d55565b91507fffffffffffffffffffffffffffffffffffffffffffffffffffffffffffffffff820361261657612615612375565b5b600182019050919050565b7f5a6f6d626965206c6576656c206973206e6f74206869676820656e6f756768005f82015250565b5f612655601f83611e39565b915061266082612621565b602082019050919050565b5f6020820190508181035f83015261268281612649565b9050919050565b7f596f7520616c7265616479206f776e2061207a6f6d6269652e000000000000005f82015250565b5f6126bd601983611e39565b91506126c882612689565b602082019050919050565b5f6020820190508181035f8301526126ea816126b1565b9050919050565b7f4e487b71000000000000000000000000000000000000000000000000000000005f52601260045260245ffd5b5f61272882611d55565b915061273383611d55565b925082612743576127426126f1565b5b828206905092915050565b5f61275882611d55565b915061276383611d55565b925082820390508181111561277b5761277a612375565b5b92915050565b7f4e6f7420617070726f76656400000000000000000000000000000000000000005f82015250565b5f6127b5600c83611e39565b91506127c082612781565b602082019050919050565b5f6020820190508181035f8301526127e2816127a9565b9050919050565b5f819050815f5260205f209050919050565b5f6020601f8301049050919050565b5f82821b905092915050565b5f600883026128457fffffffffffffffffffffffffffffffffffffffffffffffffffffffffffffffff8261280a565b61284f868361280a565b95508019841693508086168417925050509392505050565b5f819050919050565b5f61288a61288561288084611d55565b612867565b611d55565b9050919050565b5f819050919050565b6128a383612870565b6128b76128af82612891565b848454612816565b825550505050565b5f90565b6128cb6128bf565b6128d681848461289a565b505050565b5b818110156128f9576128ee5f826128c3565b6001810190506128dc565b5050565b601f82111561293e5761290f816127e9565b612918846127fb565b81016020851015612927578190505b61293b612933856127fb565b8301826128db565b50505b505050565b5f82821c905092915050565b5f61295e5f1984600802612943565b1980831691505092915050565b5f612976838361294f565b9150826002028217905092915050565b61298f82611e2f565b67ffffffffffffffff8111156129a8576129a76120b3565b5b6129b2825461251c565b6129bd8282856128fd565b5f60209050601f8311600181146129ee575f84156129dc578287015190505b6129e6858261296b565b865550612a4d565b601f1984166129fc866127e9565b5f5b82811015612a23578489015182556001820191506020850194506020810190506129fe565b86831015612a405784890151612a3c601f89168261294f565b8355505b6001600288020188555050505b505050505050565b5f612a5f82611ee6565b915061ffff8203612a7357612a72612375565b5b600182019050919050565b7f4e6577206f776e657220616464726573732063616e6e6f74206265207a65726f5f8201527f2061646472657373000000000000000000000000000000000000000000000000602082015250565b5f612ad8602883611e39565b9150612ae382612a7e565b604082019050919050565b5f6020820190508181035f830152612b0581612acc565b9050919050565b7f5a6f6d626965206973206e6f74207265616479207965740000000000000000005f82015250565b5f612b40601783611e39565b9150612b4b82612b0c565b602082019050919050565b5f6020820190508181035f830152612b6d81612b34565b9050919050565b5f612b7e82611d55565b9150612b8983611d55565b9250828201905080821115612ba157612ba0612375565b5b92915050565b5f612bb182611d55565b9150612bbc83611d55565b925082612bcc57612bcb6126f1565b5b828204905092915050565b5f81905092915050565b5f612beb82611e2f565b612bf58185612bd7565b9350612c05818560208601611e49565b80840191505092915050565b5f612c1c8284612be1565b915081905092915050565b5f606082019050612c3a5f830186611eb9565b8181036020830152612c4c8185611e81565b9050612c5b6040830184611eb9565b949350505050565b5f819050919050565b612c7d612c7882611d55565b612c63565b82525050565b5f8160601b9050919050565b5f612c9982612c83565b9050919050565b5f612caa82612c8f565b9050919050565b612cc2612cbd82611d1a565b612ca0565b82525050565b5f612cd38286612c6c565b602082019150612ce38285612cb1565b601482019150612cf38284612c6c565b60208201915081905094935050505056fea26469706673582212204b1a2ee1b878189939ed07d8e7257408c1cd2d753939527469fb5e869afb9de364736f6c63430008150033",
  "immutableReferences": {},
  "source": "// SPDX-License-Identifier: MIT\npragma solidity ^0.8.0;\n\nimport \"./zombieattack.sol\";\nimport \"./erc721.sol\";\nimport \"./safemath.sol\";\n\ncontract ZombieOwnership is ZombieAttack, ERC721 {\n\n    using SafeMath for uint256;\n\n    mapping (uint256 => address) private zombieApprovals;\n\n    function balanceOf(address _owner) public view override returns (uint256) {\n        return ownerZombieCount[_owner];\n    }\n\n    function ownerOf(uint256 _tokenId) public view override returns (address) {\n        return zombieToOwner[_tokenId];\n    }\n\n    function _transfer(address _from, address _to, uint256 _tokenId) private {\n        ownerZombieCount[_to] += 1;\n        ownerZombieCount[_from] -= 1;\n        zombieToOwner[_tokenId] = _to;\n        emit Transfer(_from, _to, _tokenId);\n    }\n\n    function transfer(address _to, uint256 _tokenId) public override onlyOwnerOf(_tokenId) {\n        _transfer(msg.sender, _to, _tokenId);\n    }\n\n    function approve(address _to, uint256 _tokenId) public override onlyOwnerOf(_tokenId) {\n        zombieApprovals[_tokenId] = _to;\n        emit Approval(msg.sender, _to, _tokenId);\n    }\n\n    function takeOwnership(uint256 _tokenId) public override {\n        require(zombieApprovals[_tokenId] == msg.sender, \"Not approved\");\n        address owner = ownerOf(_tokenId);\n        _transfer(owner, msg.sender, _tokenId);\n    }\n}\n\n",
  "sourcePath": "/home/inkz/practice/solidity/cryptoZombies/advance/contracts/zombieownership.sol",
  "compiler": {
    "name": "solc",
    "version": "0.8.21+commit.d9974bed.Emscripten.clang"
  },
  "schemaVersion": "3.4.16",
  "updatedAt": "2024-03-21T08:21:06.466Z",
  "devdoc": {
    "kind": "dev",
    "methods": {},
    "version": 1
  },
  "userdoc": {
    "kind": "user",
    "methods": {},
    "version": 1
  }
}