{
  "contractName": "ZombieHelper",
  "abi": [
    {
      "anonymous": false,
      "inputs": [
        {
          "indexed": false,
          "internalType": "uint256",
          "name": "zombieId",
          "type": "uint256"
        },
        {
          "indexed": false,
          "internalType": "string",
          "name": "name",
          "type": "string"
        },
        {
          "indexed": false,
          "internalType": "uint256",
          "name": "dna",
          "type": "uint256"
        }
      ],
      "name": "NewZombie",
      "type": "event"
    },
    {
      "anonymous": false,
      "inputs": [
        {
          "indexed": true,
          "internalType": "address",
          "name": "previousOwner",
          "type": "address"
        },
        {
          "indexed": true,
          "internalType": "address",
          "name": "newOwner",
          "type": "address"
        }
      ],
      "name": "OwnershipTransferred",
      "type": "event"
    },
    {
      "inputs": [
        {
          "internalType": "string",
          "name": "_name",
          "type": "string"
        }
      ],
      "name": "createRandomZombie",
      "outputs": [],
      "stateMutability": "nonpayable",
      "type": "function"
    },
    {
      "inputs": [
        {
          "internalType": "uint256",
          "name": "_zombieId",
          "type": "uint256"
        },
        {
          "internalType": "uint256",
          "name": "_kittyId",
          "type": "uint256"
        }
      ],
      "name": "feedOnKitty",
      "outputs": [],
      "stateMutability": "nonpayable",
      "type": "function"
    },
    {
      "inputs": [],
      "name": "levelUpFee",
      "outputs": [
        {
          "internalType": "uint256",
          "name": "",
          "type": "uint256"
        }
      ],
      "stateMutability": "view",
      "type": "function"
    },
    {
      "inputs": [],
      "name": "owner",
      "outputs": [
        {
          "internalType": "address",
          "name": "",
          "type": "address"
        }
      ],
      "stateMutability": "view",
      "type": "function"
    },
    {
      "inputs": [
        {
          "internalType": "address",
          "name": "_address",
          "type": "address"
        }
      ],
      "name": "setKittyContractAddress",
      "outputs": [],
      "stateMutability": "nonpayable",
      "type": "function"
    },
    {
      "inputs": [
        {
          "internalType": "address",
          "name": "newOwner",
          "type": "address"
        }
      ],
      "name": "transferOwnership",
      "outputs": [],
      "stateMutability": "nonpayable",
      "type": "function"
    },
    {
      "inputs": [
        {
          "internalType": "uint256",
          "name": "",
          "type": "uint256"
        }
      ],
      "name": "zombieToOwner",
      "outputs": [
        {
          "internalType": "address",
          "name": "",
          "type": "address"
        }
      ],
      "stateMutability": "view",
      "type": "function"
    },
    {
      "inputs": [
        {
          "internalType": "uint256",
          "name": "",
          "type": "uint256"
        }
      ],
      "name": "zombies",
      "outputs": [
        {
          "internalType": "string",
          "name": "name",
          "type": "string"
        },
        {
          "internalType": "uint256",
          "name": "dna",
          "type": "uint256"
        },
        {
          "internalType": "uint32",
          "name": "level",
          "type": "uint32"
        },
        {
          "internalType": "uint32",
          "name": "readyTime",
          "type": "uint32"
        },
        {
          "internalType": "uint16",
          "name": "winCount",
          "type": "uint16"
        },
        {
          "internalType": "uint16",
          "name": "lossCount",
          "type": "uint16"
        }
      ],
      "stateMutability": "view",
      "type": "function"
    },
    {
      "inputs": [],
      "name": "withdraw",
      "outputs": [],
      "stateMutability": "nonpayable",
      "type": "function"
    },
    {
      "inputs": [
        {
          "internalType": "uint256",
          "name": "_fee",
          "type": "uint256"
        }
      ],
      "name": "setLevelUpFee",
      "outputs": [],
      "stateMutability": "nonpayable",
      "type": "function"
    },
    {
      "inputs": [
        {
          "internalType": "uint256",
          "name": "_zombieId",
          "type": "uint256"
        }
      ],
      "name": "levelUp",
      "outputs": [],
      "stateMutability": "payable",
      "type": "function"
    },
    {
      "inputs": [
        {
          "internalType": "uint256",
          "name": "_zombieId",
          "type": "uint256"
        },
        {
          "internalType": "string",
          "name": "_newName",
          "type": "string"
        }
      ],
      "name": "changeName",
      "outputs": [],
      "stateMutability": "nonpayable",
      "type": "function"
    },
    {
      "inputs": [
        {
          "internalType": "uint256",
          "name": "_zombieId",
          "type": "uint256"
        },
        {
          "internalType": "uint256",
          "name": "_newDna",
          "type": "uint256"
        }
      ],
      "name": "changeDna",
      "outputs": [],
      "stateMutability": "nonpayable",
      "type": "function"
    },
    {
      "inputs": [
        {
          "internalType": "address",
          "name": "_owner",
          "type": "address"
        }
      ],
      "name": "getZombiesByOwner",
      "outputs": [
        {
          "internalType": "uint256[]",
          "name": "",
          "type": "uint256[]"
        }
      ],
      "stateMutability": "view",
      "type": "function"
    }
  ],
  "bytecode": "0x60806040526010600155600154600a6200001a919062000207565b6002556201518060035566038d7ea4c680006008553480156200003b575f80fd5b50335f806101000a81548173ffffffffffffffffffffffffffffffffffffffff021916908373ffffffffffffffffffffffffffffffffffffffff16021790555062000257565b7f4e487b71000000000000000000000000000000000000000000000000000000005f52601160045260245ffd5b5f8160011c9050919050565b5f808291508390505b60018511156200010b57808604811115620000e357620000e262000081565b5b6001851615620000f35780820291505b80810290506200010385620000ae565b9450620000c3565b94509492505050565b5f82620001255760019050620001f7565b8162000134575f9050620001f7565b81600181146200014d576002811462000158576200018e565b6001915050620001f7565b60ff8411156200016d576200016c62000081565b5b8360020a91508482111562000187576200018662000081565b5b50620001f7565b5060208310610133831016604e8410600b8410161715620001c85782820a905083811115620001c257620001c162000081565b5b620001f7565b620001d78484846001620000ba565b92509050818404811115620001f157620001f062000081565b5b81810290505b9392505050565b5f819050919050565b5f6200021382620001fe565b91506200022083620001fe565b92506200024f7fffffffffffffffffffffffffffffffffffffffffffffffffffffffffffffffff848462000114565b905092915050565b61227580620002655f395ff3fe6080604052600436106100dc575f3560e01c80635faf28801161007e578063c39cbef111610058578063c39cbef114610295578063c4114b12146102bd578063ccf670f8146102e7578063f2fde38b1461030f576100dc565b80635faf28801461021b5780637bff0a01146102435780638da5cb5b1461026b576100dc565b80633ccfd60b116100ba5780633ccfd60b146101655780634412e1041461017b578063528b7b8f146101b75780635f4623f1146101f3576100dc565b80630ce90ec2146100e057806317a7f4cc146100fc5780632052465e14610124575b5f80fd5b6100fa60048036038101906100f591906113d9565b610337565b005b348015610107575f80fd5b50610122600480360381019061011d9190611404565b6103df565b005b34801561012f575f80fd5b5061014a600480360381019061014591906113d9565b6104f9565b60405161015c96959493929190611515565b60405180910390f35b348015610170575f80fd5b50610179610601565b005b348015610186575f80fd5b506101a1600480360381019061019c91906115d5565b6106f3565b6040516101ae91906116b7565b60405180910390f35b3480156101c2575f80fd5b506101dd60048036038101906101d891906113d9565b61083e565b6040516101ea91906116e6565b60405180910390f35b3480156101fe575f80fd5b50610219600480360381019061021491906115d5565b61086e565b005b348015610226575f80fd5b50610241600480360381019061023c9190611404565b61093e565b005b34801561024e575f80fd5b506102696004803603810190610264919061182b565b610a8a565b005b348015610276575f80fd5b5061027f610b3d565b60405161028c91906116e6565b60405180910390f35b3480156102a0575f80fd5b506102bb60048036038101906102b69190611872565b610b60565b005b3480156102c8575f80fd5b506102d1610cb4565b6040516102de91906118cc565b60405180910390f35b3480156102f2575f80fd5b5061030d600480360381019061030891906113d9565b610cba565b005b34801561031a575f80fd5b50610335600480360381019061033091906115d5565b610d51565b005b600854341461037b576040517f08c379a00000000000000000000000000000000000000000000000000000000081526004016103729061192f565b60405180910390fd5b6004818154811061038f5761038e61194d565b5b905f5260205f2090600302016002015f81819054906101000a900463ffffffff16809291906103bd906119a7565b91906101000a81548163ffffffff021916908363ffffffff1602179055505050565b5f60075f9054906101000a900473ffffffffffffffffffffffffffffffffffffffff1673ffffffffffffffffffffffffffffffffffffffff1663e98b7f4d836040518263ffffffff1660e01b815260040161043a91906118cc565b61014060405180830381865afa158015610456573d5f803e3d5ffd5b505050506040513d601f19601f8201168201806040525081019061047a9190611a1b565b909192939495969798509091929394959697509091929394959650909192939495509091929394509091929350909192509091509050809150506104f483826040518060400160405280600581526020017f6b69747479000000000000000000000000000000000000000000000000000000815250610f07565b505050565b60048181548110610508575f80fd5b905f5260205f2090600302015f91509050805f01805461052790611b21565b80601f016020809104026020016040519081016040528092919081815260200182805461055390611b21565b801561059e5780601f106105755761010080835404028352916020019161059e565b820191905f5260205f20905b81548152906001019060200180831161058157829003601f168201915b505050505090806001015490806002015f9054906101000a900463ffffffff16908060020160049054906101000a900463ffffffff16908060020160089054906101000a900461ffff169080600201600a9054906101000a900461ffff16905086565b5f8054906101000a900473ffffffffffffffffffffffffffffffffffffffff1673ffffffffffffffffffffffffffffffffffffffff163373ffffffffffffffffffffffffffffffffffffffff161461068e576040517f08c379a000000000000000000000000000000000000000000000000000000000815260040161068590611bc1565b60405180910390fd5b5f8054906101000a900473ffffffffffffffffffffffffffffffffffffffff1673ffffffffffffffffffffffffffffffffffffffff166108fc4790811502906040515f60405180830381858888f193505050501580156106f0573d5f803e3d5ffd5b50565b60605f60065f8473ffffffffffffffffffffffffffffffffffffffff1673ffffffffffffffffffffffffffffffffffffffff1681526020019081526020015f205467ffffffffffffffff81111561074d5761074c611707565b5b60405190808252806020026020018201604052801561077b5781602001602082028036833780820191505090505b5090505f805b600480549050811015610833578473ffffffffffffffffffffffffffffffffffffffff1660055f8381526020019081526020015f205f9054906101000a900473ffffffffffffffffffffffffffffffffffffffff1673ffffffffffffffffffffffffffffffffffffffff160361082057808383815181106108055761080461194d565b5b602002602001018181525050818061081c90611bdf565b9250505b808061082b90611bdf565b915050610781565b508192505050919050565b6005602052805f5260405f205f915054906101000a900473ffffffffffffffffffffffffffffffffffffffff1681565b5f8054906101000a900473ffffffffffffffffffffffffffffffffffffffff1673ffffffffffffffffffffffffffffffffffffffff163373ffffffffffffffffffffffffffffffffffffffff16146108fb576040517f08c379a00000000000000000000000000000000000000000000000000000000081526004016108f290611bc1565b60405180910390fd5b8060075f6101000a81548173ffffffffffffffffffffffffffffffffffffffff021916908373ffffffffffffffffffffffffffffffffffffffff16021790555050565b60148281600482815481106109565761095561194d565b5b905f5260205f2090600302016002015f9054906101000a900463ffffffff1663ffffffff1610156109bc576040517f08c379a00000000000000000000000000000000000000000000000000000000081526004016109b390611c70565b60405180910390fd5b8360055f8281526020019081526020015f205f9054906101000a900473ffffffffffffffffffffffffffffffffffffffff1673ffffffffffffffffffffffffffffffffffffffff163373ffffffffffffffffffffffffffffffffffffffff1614610a5b576040517f08c379a0000000000000000000000000000000000000000000000000000000008152600401610a5290611cd8565b60405180910390fd5b8360048681548110610a7057610a6f61194d565b5b905f5260205f209060030201600101819055505050505050565b5f60065f3373ffffffffffffffffffffffffffffffffffffffff1673ffffffffffffffffffffffffffffffffffffffff1681526020019081526020015f205414610b09576040517f08c379a0000000000000000000000000000000000000000000000000000000008152600401610b0090611d40565b60405180910390fd5b5f610b13826110e5565b9050606481610b229190611d8b565b81610b2d9190611dbb565b9050610b398282611128565b5050565b5f8054906101000a900473ffffffffffffffffffffffffffffffffffffffff1681565b6002828160048281548110610b7857610b7761194d565b5b905f5260205f2090600302016002015f9054906101000a900463ffffffff1663ffffffff161015610bde576040517f08c379a0000000000000000000000000000000000000000000000000000000008152600401610bd590611c70565b60405180910390fd5b8360055f8281526020019081526020015f205f9054906101000a900473ffffffffffffffffffffffffffffffffffffffff1673ffffffffffffffffffffffffffffffffffffffff163373ffffffffffffffffffffffffffffffffffffffff1614610c7d576040517f08c379a0000000000000000000000000000000000000000000000000000000008152600401610c7490611cd8565b60405180910390fd5b8360048681548110610c9257610c9161194d565b5b905f5260205f2090600302015f019081610cac9190611f8b565b505050505050565b60085481565b5f8054906101000a900473ffffffffffffffffffffffffffffffffffffffff1673ffffffffffffffffffffffffffffffffffffffff163373ffffffffffffffffffffffffffffffffffffffff1614610d47576040517f08c379a0000000000000000000000000000000000000000000000000000000008152600401610d3e90611bc1565b60405180910390fd5b8060088190555050565b5f8054906101000a900473ffffffffffffffffffffffffffffffffffffffff1673ffffffffffffffffffffffffffffffffffffffff163373ffffffffffffffffffffffffffffffffffffffff1614610dde576040517f08c379a0000000000000000000000000000000000000000000000000000000008152600401610dd590611bc1565b60405180910390fd5b5f73ffffffffffffffffffffffffffffffffffffffff168173ffffffffffffffffffffffffffffffffffffffff1603610e4c576040517f08c379a0000000000000000000000000000000000000000000000000000000008152600401610e43906120ca565b60405180910390fd5b8073ffffffffffffffffffffffffffffffffffffffff165f8054906101000a900473ffffffffffffffffffffffffffffffffffffffff1673ffffffffffffffffffffffffffffffffffffffff167f8be0079c531659141344cd1fd0a4f28419497f9722a3daafe3b4186f6b6457e060405160405180910390a3805f806101000a81548173ffffffffffffffffffffffffffffffffffffffff021916908373ffffffffffffffffffffffffffffffffffffffff16021790555050565b8260055f8281526020019081526020015f205f9054906101000a900473ffffffffffffffffffffffffffffffffffffffff1673ffffffffffffffffffffffffffffffffffffffff163373ffffffffffffffffffffffffffffffffffffffff1614610fa6576040517f08c379a0000000000000000000000000000000000000000000000000000000008152600401610f9d90611cd8565b60405180910390fd5b5f60048581548110610fbb57610fba61194d565b5b905f5260205f2090600302019050610fd28161133c565b611011576040517f08c379a000000000000000000000000000000000000000000000000000000000815260040161100890612132565b60405180910390fd5b6002548461101f9190611d8b565b93505f60028583600101546110349190612150565b61103e9190612183565b90507f8d53323b21b9f304546f6d3e61cde865451064d614aa4912f395b755a9d8cad984805190602001200361109557606360648261107d9190611d8b565b826110889190611dbb565b6110929190612150565b90505b6110d46040518060400160405280600681526020017f4e6f4e616d65000000000000000000000000000000000000000000000000000081525082611128565b6110dd82611362565b505050505050565b5f80826040516020016110f891906121ed565b604051602081830303815290604052805190602001205f1c9050600254816111209190611d8b565b915050919050565b5f600480549050905060046040518060c00160405280858152602001848152602001600163ffffffff168152602001600354426111659190612150565b63ffffffff1681526020015f61ffff1681526020015f61ffff16815250908060018154018082558091505060019003905f5260205f2090600302015f909190919091505f820151815f0190816111bb9190611f8b565b50602082015181600101556040820151816002015f6101000a81548163ffffffff021916908363ffffffff16021790555060608201518160020160046101000a81548163ffffffff021916908363ffffffff16021790555060808201518160020160086101000a81548161ffff021916908361ffff16021790555060a082015181600201600a6101000a81548161ffff021916908361ffff16021790555050503360055f8381526020019081526020015f205f6101000a81548173ffffffffffffffffffffffffffffffffffffffff021916908373ffffffffffffffffffffffffffffffffffffffff16021790555060065f3373ffffffffffffffffffffffffffffffffffffffff1673ffffffffffffffffffffffffffffffffffffffff1681526020019081526020015f205f8154809291906112f790611bdf565b91905055507f88f026aacbbecc90c18411df4b1185fd8d9be2470f1962f192bf84a27d0704b781848460405161132f93929190612203565b60405180910390a1505050565b5f428260020160049054906101000a900463ffffffff1663ffffffff1611159050919050565b600354426113709190612150565b8160020160046101000a81548163ffffffff021916908363ffffffff16021790555050565b5f604051905090565b5f80fd5b5f80fd5b5f819050919050565b6113b8816113a6565b81146113c2575f80fd5b50565b5f813590506113d3816113af565b92915050565b5f602082840312156113ee576113ed61139e565b5b5f6113fb848285016113c5565b91505092915050565b5f806040838503121561141a5761141961139e565b5b5f611427858286016113c5565b9250506020611438858286016113c5565b9150509250929050565b5f81519050919050565b5f82825260208201905092915050565b5f5b8381101561147957808201518184015260208101905061145e565b5f8484015250505050565b5f601f19601f8301169050919050565b5f61149e82611442565b6114a8818561144c565b93506114b881856020860161145c565b6114c181611484565b840191505092915050565b6114d5816113a6565b82525050565b5f63ffffffff82169050919050565b6114f3816114db565b82525050565b5f61ffff82169050919050565b61150f816114f9565b82525050565b5f60c0820190508181035f83015261152d8189611494565b905061153c60208301886114cc565b61154960408301876114ea565b61155660608301866114ea565b6115636080830185611506565b61157060a0830184611506565b979650505050505050565b5f73ffffffffffffffffffffffffffffffffffffffff82169050919050565b5f6115a48261157b565b9050919050565b6115b48161159a565b81146115be575f80fd5b50565b5f813590506115cf816115ab565b92915050565b5f602082840312156115ea576115e961139e565b5b5f6115f7848285016115c1565b91505092915050565b5f81519050919050565b5f82825260208201905092915050565b5f819050602082019050919050565b611632816113a6565b82525050565b5f6116438383611629565b60208301905092915050565b5f602082019050919050565b5f61166582611600565b61166f818561160a565b935061167a8361161a565b805f5b838110156116aa5781516116918882611638565b975061169c8361164f565b92505060018101905061167d565b5085935050505092915050565b5f6020820190508181035f8301526116cf818461165b565b905092915050565b6116e08161159a565b82525050565b5f6020820190506116f95f8301846116d7565b92915050565b5f80fd5b5f80fd5b7f4e487b71000000000000000000000000000000000000000000000000000000005f52604160045260245ffd5b61173d82611484565b810181811067ffffffffffffffff8211171561175c5761175b611707565b5b80604052505050565b5f61176e611395565b905061177a8282611734565b919050565b5f67ffffffffffffffff82111561179957611798611707565b5b6117a282611484565b9050602081019050919050565b828183375f83830152505050565b5f6117cf6117ca8461177f565b611765565b9050828152602081018484840111156117eb576117ea611703565b5b6117f68482856117af565b509392505050565b5f82601f830112611812576118116116ff565b5b81356118228482602086016117bd565b91505092915050565b5f602082840312156118405761183f61139e565b5b5f82013567ffffffffffffffff81111561185d5761185c6113a2565b5b611869848285016117fe565b91505092915050565b5f80604083850312156118885761188761139e565b5b5f611895858286016113c5565b925050602083013567ffffffffffffffff8111156118b6576118b56113a2565b5b6118c2858286016117fe565b9150509250929050565b5f6020820190506118df5f8301846114cc565b92915050565b7f496e636f7272656374206c6576656c20757020666565000000000000000000005f82015250565b5f61191960168361144c565b9150611924826118e5565b602082019050919050565b5f6020820190508181035f8301526119468161190d565b9050919050565b7f4e487b71000000000000000000000000000000000000000000000000000000005f52603260045260245ffd5b7f4e487b71000000000000000000000000000000000000000000000000000000005f52601160045260245ffd5b5f6119b1826114db565b915063ffffffff82036119c7576119c661197a565b5b600182019050919050565b5f8115159050919050565b6119e6816119d2565b81146119f0575f80fd5b50565b5f81519050611a01816119dd565b92915050565b5f81519050611a15816113af565b92915050565b5f805f805f805f805f806101408b8d031215611a3a57611a3961139e565b5b5f611a478d828e016119f3565b9a50506020611a588d828e016119f3565b9950506040611a698d828e01611a07565b9850506060611a7a8d828e01611a07565b9750506080611a8b8d828e01611a07565b96505060a0611a9c8d828e01611a07565b95505060c0611aad8d828e01611a07565b94505060e0611abe8d828e01611a07565b935050610100611ad08d828e01611a07565b925050610120611ae28d828e01611a07565b9150509295989b9194979a5092959850565b7f4e487b71000000000000000000000000000000000000000000000000000000005f52602260045260245ffd5b5f6002820490506001821680611b3857607f821691505b602082108103611b4b57611b4a611af4565b5b50919050565b7f4f6e6c7920746865206f776e65722063616e2063616c6c20746869732066756e5f8201527f6374696f6e000000000000000000000000000000000000000000000000000000602082015250565b5f611bab60258361144c565b9150611bb682611b51565b604082019050919050565b5f6020820190508181035f830152611bd881611b9f565b9050919050565b5f611be9826113a6565b91507fffffffffffffffffffffffffffffffffffffffffffffffffffffffffffffffff8203611c1b57611c1a61197a565b5b600182019050919050565b7f5a6f6d626965206c6576656c206973206e6f74206869676820656e6f756768005f82015250565b5f611c5a601f8361144c565b9150611c6582611c26565b602082019050919050565b5f6020820190508181035f830152611c8781611c4e565b9050919050565b7f4e6f7420746865206f776e6572206f662074686973207a6f6d626965000000005f82015250565b5f611cc2601c8361144c565b9150611ccd82611c8e565b602082019050919050565b5f6020820190508181035f830152611cef81611cb6565b9050919050565b7f596f7520616c7265616479206f776e2061207a6f6d6269652e000000000000005f82015250565b5f611d2a60198361144c565b9150611d3582611cf6565b602082019050919050565b5f6020820190508181035f830152611d5781611d1e565b9050919050565b7f4e487b71000000000000000000000000000000000000000000000000000000005f52601260045260245ffd5b5f611d95826113a6565b9150611da0836113a6565b925082611db057611daf611d5e565b5b828206905092915050565b5f611dc5826113a6565b9150611dd0836113a6565b9250828203905081811115611de857611de761197a565b5b92915050565b5f819050815f5260205f209050919050565b5f6020601f8301049050919050565b5f82821b905092915050565b5f60088302611e4a7fffffffffffffffffffffffffffffffffffffffffffffffffffffffffffffffff82611e0f565b611e548683611e0f565b95508019841693508086168417925050509392505050565b5f819050919050565b5f611e8f611e8a611e85846113a6565b611e6c565b6113a6565b9050919050565b5f819050919050565b611ea883611e75565b611ebc611eb482611e96565b848454611e1b565b825550505050565b5f90565b611ed0611ec4565b611edb818484611e9f565b505050565b5b81811015611efe57611ef35f82611ec8565b600181019050611ee1565b5050565b601f821115611f4357611f1481611dee565b611f1d84611e00565b81016020851015611f2c578190505b611f40611f3885611e00565b830182611ee0565b50505b505050565b5f82821c905092915050565b5f611f635f1984600802611f48565b1980831691505092915050565b5f611f7b8383611f54565b9150826002028217905092915050565b611f9482611442565b67ffffffffffffffff811115611fad57611fac611707565b5b611fb78254611b21565b611fc2828285611f02565b5f60209050601f831160018114611ff3575f8415611fe1578287015190505b611feb8582611f70565b865550612052565b601f19841661200186611dee565b5f5b8281101561202857848901518255600182019150602085019450602081019050612003565b868310156120455784890151612041601f891682611f54565b8355505b6001600288020188555050505b505050505050565b7f4e6577206f776e657220616464726573732063616e6e6f74206265207a65726f5f8201527f2061646472657373000000000000000000000000000000000000000000000000602082015250565b5f6120b460288361144c565b91506120bf8261205a565b604082019050919050565b5f6020820190508181035f8301526120e1816120a8565b9050919050565b7f5a6f6d626965206973206e6f74207265616479207965740000000000000000005f82015250565b5f61211c60178361144c565b9150612127826120e8565b602082019050919050565b5f6020820190508181035f83015261214981612110565b9050919050565b5f61215a826113a6565b9150612165836113a6565b925082820190508082111561217d5761217c61197a565b5b92915050565b5f61218d826113a6565b9150612198836113a6565b9250826121a8576121a7611d5e565b5b828204905092915050565b5f81905092915050565b5f6121c782611442565b6121d181856121b3565b93506121e181856020860161145c565b80840191505092915050565b5f6121f882846121bd565b915081905092915050565b5f6060820190506122165f8301866114cc565b81810360208301526122288185611494565b905061223760408301846114cc565b94935050505056fea26469706673582212205569e8ae45b2720da99a6835bba95a72885a4f3608ea104cf1ebffb098a118df64736f6c63430008150033",
  "immutableReferences": {},
  "source": "// SPDX-License-Identifier: MIT\npragma solidity ^0.8.0;\n\nimport \"./zombiefeeding.sol\";\n\ncontract ZombieHelper is ZombieFeeding {\n\n    uint256 public levelUpFee = 0.001 ether;\n\n    modifier aboveLevel(uint256 _level, uint256 _zombieId) {\n        require(zombies[_zombieId].level >= _level, \"Zombie level is not high enough\");\n        _;\n    }\n\n    function withdraw() external onlyOwner {\n        payable(owner).transfer(address(this).balance);\n    }\n\n    function setLevelUpFee(uint256 _fee) external onlyOwner {\n        levelUpFee = _fee;\n    }\n\n    function levelUp(uint256 _zombieId) external payable {\n        require(msg.value == levelUpFee, \"Incorrect level up fee\");\n        zombies[_zombieId].level++;\n    }\n\n    function changeName(uint256 _zombieId, string memory _newName) external aboveLevel(2, _zombieId) onlyOwnerOf(_zombieId) {\n        zombies[_zombieId].name = _newName;\n    }\n\n    function changeDna(uint256 _zombieId, uint256 _newDna) external aboveLevel(20, _zombieId) onlyOwnerOf(_zombieId) {\n        zombies[_zombieId].dna = _newDna;\n    }\n\n    function getZombiesByOwner(address _owner) external view returns(uint256[] memory) {\n        uint256[] memory result = new uint256[](ownerZombieCount[_owner]);\n        uint256 counter = 0;\n        for (uint256 i = 0; i < zombies.length; i++) {\n            if (zombieToOwner[i] == _owner) {\n                result[counter] = i;\n                counter++;\n            }\n        }\n        return result;\n    }\n}\n\n",
  "sourcePath": "/home/inkz/practice/solidity/cryptoZombies/advance/contracts/zombiehelper.sol",
  "compiler": {
    "name": "solc",
    "version": "0.8.21+commit.d9974bed.Emscripten.clang"
  },
  "schemaVersion": "3.4.16",
  "updatedAt": "2024-03-21T08:21:06.462Z",
  "devdoc": {
    "kind": "dev",
    "methods": {},
    "version": 1
  },
  "userdoc": {
    "kind": "user",
    "methods": {},
    "version": 1
  }
}